S00D000044726F6E652E737265631F
S113000018C1000035C100006CC3000031C10000FC
S11300102FC100002DC100002BC1000029C1000028
S113002027C1000025C1000023C1000021C1000038
S11300301FC100001DC100000C94031B0C94301B55
S11300400C945D1B0C948A1B0C94B71B0C94E41B3E
S11300500C94111C0C943E1C0C946B1C0C94981C5A
S113006007C100000C94EA170C94251801C1000084
S1130070FFC00000FDC00000FBC00000F9C000008C
S1130080F7C00000F5C00000F3C00000F1C000009C
S1130090EFC00000EDC00000EBC00000E9C00000AC
S11300A0E7C00000E5C00000E3C00000E1C00000BC
S11300B0DFC00000DDC00000DBC000000C94D31DD5
S11300C00C94001E0C942D1E0C945A1E0C94871E26
S11300D00C94B41ECDC00000CBC00000C9C0000009
S11300E0C7C00000C5C00000C3C00000C1C00000FC
S11300F0BFC00000BDC00000BBC00000B9C000000C
S1130100B7C00000B5C00000B3C00000B1C000001B
S1130110AFC00000ADC00000ABC00000A9C000002B
S1130120A7C00000A5C00000A3C00000A1C000003B
S11301309FC000000C94C51C0C94F21C0C941F1D51
S11301400C944C1D0C94791D0C94A61D91C00000B8
S11301508FC000008DC000008BC0000089C000006B
S113016087C0000085C0000083C0000081C000007B
S11301707FC000007DC000007BC0000079C000008B
S113018077C0000075C0000073C0000071C000009B
S11301906FC000006DC000006BC0000069C00000AB
S11301A00C94B02B65C0000063C0000061C0000067
S11301B00C94E11E0C940E1F0C943B1F0C94681FAE
S11301C00C94951F0C94C21FB809CC09C209C70925
S11301D0BD09B809CC09C709C209BD09D109E90992
S11301E0F609030A100A1D0AE909F609100A030AA6
S11301F01D0ADC094A0F470F440F410F3E0F4D0FF4
S1130200500F741171116E116B11681177117A11FD
S11302104445425547205541525420494E49543A89
S1130220200042414400474F4F4400000E060C0496
S1130230000011241FBECFEFCDBFDFE2DEBF16E208
S1130240A0E0B0E2ECE8F9E500E00BBF02C00790E3
S11302500D92A831B107D9F728E2A8E1B6E201C0AE
S11302601D92A33DB207E1F70E941D280C94C42CF3
S1130270C7CE6BE176E280E092E00E94DC1948E1AF
S113028056E261E080E092E00E94161AEBE1F6E2A9
S1130290908181818F7C80628183917E90831282A0
S11302A084E08383BF0180E092E00C949319803151
S11302B020F591E090931826880F880F880F80937B
S11302C0192648E156E261E080E092E00E94FC19C0
S11302D09FB7F894809100028460809300029FBFCE
S11302E080910602982F917080FFFACF90930602B6
S11302F0809124029091250208951092182680512D
S1130300880F880F880F80931926DBCF80E092E056
S11303100C946D198F929F92BF92CF92DF92EF92BD
S1130320FF920F931F93CF93DF9380E4882E86E090
S1130330982E12E0D40115961C93159711961C93D0
S11303401197E0EBF0E0108300E250960C93509785
S1130350CC24C3941296CC921297C08278E1509622
S11303607C93C0E0D6E098E0D92EDA82D082188A55
S113037020E236E0D90112961C931297108350960E
S11303807C93509712960C931297008350967C930B
S113039050971296DC921297D08250967C931A83CF
S11303A01083788B0A830083788B40EA56E060E1FF
S11303B0DA0112966C931297608350967C9350974F
S11303C06A836083788B80E8E82EEA82E082788B07
S11303D094E0F92E1296FC921297F08250966C9348
S11303E0509712960C931297008350967C935097D3
S11303F01296EC921297E08250967C93509780E488
S1130400B82E1296BC921297B08250967C93FA82C0
S1130410F082788BD90112966C9312976083509670
S11304207C9380E696E0DC0112960C93129700838D
S113043050967C93509712966C93129760835096C3
S11304407C93BA82B082188AE901CA82C082188A6F
S1130450BA82B082188AEA82E082188AA0E8B6E0FA
S11304601596CC9215971196CC921197C0825096FE
S11304701C925097EA01CD82C982C082188A1696CE
S11304806C93169712966C931297608350961C92F5
S1130490509711961C931197108350961C92509765
S11304A01596DC9215971196DC921197D08250968E
S11304B01C9250971596FC9215971296FC921297DF
S11304C0F08250961C92509716960C93169711969C
S11304D00C931197008350961C9250971D83198397
S11304E01083188AEC01CD82C982C082188A1D83C8
S11304F019831083188AE901FA82F082788BE40167
S1130500DD82D982D082188AFD82FA82F082188A2A
S11305101596EC9215971196EC921197E0825096ED
S11305201C92DC011596DC9215971196DC921197BA
S1130530D08250961C9250971296FC921297F08299
S113054050961C9250971296EC921297E082509615
S11305506C936A836083688B0A830083688BBA8296
S1130560B082688BEA82E082688BDF91CF911F9121
S11305700F91FF90EF90DF90CF90BF909F908F905E
S1130580089581E08093B00080E18093500680E07C
S113059090E001968A369105E1F78091480691E052
S11305A09093B0001092500681700895EF92FF92DC
S11305B00F931F93CF93DF931F92CDB7DEB7082F0E
S11305C07A0169830E943B27182F698161114AC00F
S11305D089E3E8168CE0F80608F04FC083E0F82EB3
S11305E040E060E081E00E94BC154AEA56E460E124
S11305F070E04150510961097109411551056105C6
S11306007105B9F740E060E080E00E94BC154AEA59
S113061056E460E170E041505109610971094115E6
S1130620510561057105B9F7FA94D1F68091EE2769
S1130630881F8827881F9091EF279F73990F982B05
S113064081E069F10E94131540E060E080E011232D
S113065071F00F90DF91CF911F910F91FF90EF9068
S11306600C94BC1541E061E081E01111F2CF01115D
S1130670F0CF40E060E080E0ECCFE3E4EE16ECE0A5
S1130680FE0648F0FAE8EF16FCE0FF0678F440E0D6
S113069061E081E0EACF40E060E081E0E6CF80E025
S11306A00E94131540E060E080E0D1CF41E060E0BB
S11306B080E0DBCF9FB7F89481E080934A062FB7A0
S11306C0F8948093B000E0E4F6E08089887F808B22
S11306D080898160808B2FBF82E0809349069FBF11
S11306E008951F920F920FB60F9211240BB60F921A
S11306F02F933F934F935F936F937F938F939F9326
S1130700AF93BF93CF93EF93FF93CFB7F8948091B8
S11307104C0680FF03C081E080934C0641E061E019
S113072081E00E94BC15809148008E708430A9F04D
S1130730CFBFFF91EF91CF91BF91AF919F918F91D7
S11307407F916F915F914F913F912F910F900BBECD
S11307500F900FBE0F901F901895809148008E7FC8
S11307608093480061E089E790E00E94301AFFCF4F
S1130770CF93DF93CDB7DEB72897CDBFDEBF40EF71
S113078059E462E070E081EF97E20E94B41610C071
S1130790232B09F462C0BB24B394025F1F4FF0E221
S11307A00F351F0719F54B2D6D2D8C2D0E94BC158F
S11307B00E94EA1888E0F4D0182F89E0F1D0811162
S11307C0AAC081EF97E20E94CD1681118BC080E010
S11307D0E7D0882309F44AC0DD24D39403E410E26B
S11307E082E9E82E80E2F82EB12CC12CF801319771
S11307F080815DDD8D839E83F801808158DD8F8348
S113080098879E012F5F3F4FAE014B5F5F4F6EE8AD
S113081070E2F701819191917F010E9472136F81BF
S113082078858D819E810E94651860E08BE890E256
S11308300E9479176B817C8189819A810E94651855
S113084089E295E20E94AD172B813C8137FFA0CF4E
S1130850DD24D394CC24C394A0CF89819A81181623
S113086019060CF06CC0CC24C39497CF81E098D0C7
S11308708111B2CF82E094D08111AECF83E090D0C9
S11308808111AACF84E08CD08111A6CF85E088D0D5
S11308908111A2CF86E084D081119ECF87E080D0E1
S11308A081119ACF88E07CD0811196CF89E078D0ED
S11308B0811192CF8BE074D081118ECF8AE070D0F9
S11308C081118ACF8DE06CD0811186CF8CE068D005
S11308D0811182CF8EE064D081117ECF8FE060D011
S11308E0D82E7CCF81EF97E20E94FC1640E060E0B6
S11308F080E00E94BC158091EE27881F8827881FFE
S11309009091EF279F73990F982B81E009F480E071
S11309100E9413155CCF112309F453CF8AEA90EB9C
S1130920A8E2B0E00197A109B1090097A105B105BA
S1130930C9F761E089E790E00E94301AFFCF892B64
S113094009F42BCFDD24D39428CF80E00E949315A3
S1130950C3E0D0E040E060E081E00E94BC158AEA98
S113096096E4A0E1B0E00197A109B1090097A105BF
S1130970B105C9F740E060E080E00E94BC158AEA56
S113098096E4A0E1B0E00197A109B1090097A1059F
S1130990B105C9F721972097E9F60E94F724E8DE0C
S11309A094E0899FF0011124E050F04E8081A82F3B
S11309B0A695A695A69590E2A99FD0011124BA5FA9
S11309C018962C91382F377081E090E0032E01C0E7
S11309D0880F0A94EAF7282381E09381211103C048
S11309E0911103C008959111FDCF80E00895809383
S11309F02126909322260C946327CF93E0912126FD
S1130A00F091222690E09C01220F331F220F331F06
S1130A10220F331F280F391FE20FF31F613089F1B2
S1130A20C481C11102C0CF9108958C2F0E9440133C
S1130A3081EA0E944A2481E00E944A2480E00E94C4
S1130A404A2480E00E944A248C2F0E944A24C5E054
S1130A5080E00E944A24C150D9F781EA0E944A24C6
S1130A6081E00E944A2480E00E944A2480E00E949F
S1130A704A24C6E080E00E944A24C150D9F7CF91AD
S1130A800895C681CECFFC016083718345831282B1
S1130A901482828183830895FC019FB7F894248192
S1130AA085812817B8F4A081B181828121E0280FC3
S1130AB02283A80FB11D6C9384818F5F848322816C
S1130AC08581281720F0128281E09FBF089581E07C
S1130AD09FBF089580E09FBF0895FC019FB7F894DD
S1130AE084818823C9F0A081B181838121E0280F0A
S1130AF02383A80FB11D8C91DB018C9384818150D9
S1130B00848323818581281720F0138281E09FBF8D
S1130B10089581E09FBF089580E09FBF08951F93CB
S1130B20CF93DF93FC011FB7F8943381848184173A
S1130B3028F5D481DD2309F45EC080819181DC0134
S1130B40A30FB11D2C91222309F44FC02581C0E0CD
S1130B5006C0DC01A30FB11D5C91552389F03F5FF2
S1130B60321708F030E0CF5FCD13F3CF80E01FBF22
S1130B70811112C0DF91CF911F910895D42FDACF44
S1130B802C2F30E02F5F3F4F50E081E024173507D2
S1130B906CF71FBF882371F351E05C0F59F3DB013D
S1130BA090E01AC0C081D181238141E0420F438388
S1130BB0C20FD11D28812C93248121502483438189
S1130BC02581421780F0138221E03FBF222391F256
S1130BD09F5F1196591771F23FB7F8942481211140
S1130BE0E1CF20E0F2CF21E0F0CF242F30E081E00C
S1130BF0223031050CF480E0C0E0B9CFFC018081E3
S1130C008823C1F091819923A9F02281211112C076
S1130C108062906281369CF480538295807F913605
S1130C209CF09755980F9093242661E089E990E20F
S1130C300C94791761E086E990E20C947917875552
S1130C408295807F91366CF79053980F9093242669
S1130C5061E089E990E20C947917FC018081882392
S1130C60C1F091819923A9F02281211112C08062DF
S1130C70906281369CF480538295807F91369CF0FB
S1130C809755980F9093232661E089E990E20C949C
S1130C90791761E086E990E20C947917875582957B
S1130CA0807F91366CF79053980F9093232661E0E0
S1130CB089E990E20C9479171F93CF93DF9382EE26
S1130CC096E2BDD2C2EED6E20FC017E5180F9A30F5
S1130CD0B4F087E5890F0E946817812F0E94681776
S1130CE086E2CA3ED80771F09991892F8F70929548
S1130CF09F708A3054F710E3180F9A3054F780E34A
S1130D00890FE9CF80E00E94681761E089E990E2E9
S1130D100E94791710922426DF91CF911F91089594
S1130D20CF93DF93FC0101900020E9F73197E81B92
S1130D30F90B4E2FE0FD35C0EE23D1F1E0912426CE
S1130D40E83078F5DC01119620E00FC097559295B4
S1130D50907F8136E4F08755890F80832E5F2417B6
S1130D60E0F412963830C9F0E32F31E03E0FF0E0A2
S1130D70EE51F94DED012197988190628C9180623A
S1130D80913624F790539295907F813624F78053BF
S1130D90890F80832E5F241720F330932426421773
S1130DA039F061E086E990E2DF91CF910C947917F4
S1130DB061E089E990E2DF91CF910C947917FC010D
S1130DC001900020E9F73197E81BF90B6E2FE0FD45
S1130DD034C0EE23B9F1E0912326ED3B70F540E0F9
S1130DE00EC037553295307F2136ECF02755230F4E
S1130DF020834E5F4617E8F45D3BD9F0E52F51E0C0
S1130E005E0FF0E0EB5DF94DDC01A40FB11D3C91E8
S1130E10306211962C91206231361CF73053329592
S1130E20307F21361CF72053230F20834E5F461753
S1130E3018F350932326641729F061E086E990E2C1
S1130E400C94791761E089E990E20C94791782EEA9
S1130E5096E2FCD161E089E990E20E947917109250
S1130E6024260895FC0190819923E1F0818188234F
S1130E70C9F02281211116C0906280629136BCF4BF
S1130E8090539295907F8136BCF08755890F65E227
S1130E9076E2ECD161E089E990E20E947917109240
S1130EA02326089561E086E990E20C94791797551A
S1130EB09295907F81364CF78053890FE8CF61E09B
S1130EC089E990E20E94791780E090E001968535E7
S1130ED020ED9207D9F761E089E790E00E94301A8B
S1130EE0FFCF61E089E990E20E94791780E090E009
S1130EF00196853520ED9207D9F70C949B1381E078
S1130F008093A50680E090E00196853D24E1920758
S1130F10D9F781E08093A60680E090E00196853DB4
S1130F2024E19207D9F781E08093A50680E090E060
S1130F300196853D24E19207D9F781E08093A606C6
S1130F4080E090E00196853D24E19207D9F781E0A5
S1130F508093A50680E090E00196853D24E1920708
S1130F60D9F78CE990E20C9469241F93CF93DF9313
S1130F70FC0180818823B1F19181992399F1228127
S1130F80211130C0806290628136A4F58053282FED
S1130F902295207F9136A4F189EA890F820F65E2B8
S1130FA076E25BD1C5E2D6E20FC017E5180F9A309E
S1130FB0B4F087E5890F0E946817812F0E94681793
S1130FC086E2C23ED80701F19991892F8F709295DC
S1130FD09F708A3054F710E3180F9A3054F780E367
S1130FE0890FE9CF61E086E990E2DF91CF911F910B
S1130FF00C9479178755282F2295207F913664F613
S113100080ED890F820FCBCF80E00E94681761E0EA
S113101089E990E20E94791710922326DF91CF91FB
S11310201F910895EF92FF920F931F93CF93DF9335
S1131030CDB7DEB7C354D109CDBFDEBF60E4CE0166
S113104001960E94E41781110BC0CD5BDF4FCDBF29
S1131050DEBFDF91CF911F910F91FF90EF90089524
S1131060898122968FAF22979A8123969FAF2397E7
S113107024961FAE2497992787FD90958D539F4DF5
S11310800E945713BE016F5B7F4F85EA90E20E9476
S1131090882C8C01009709F473C0BE016F5B7F4FED
S11310A088EA90E20E94882C892B09F482C0BE0150
S11310B06F5B7F4F8BEA90E20E94882C892B09F4A6
S11310C07FC0BE016F5B7F4F8EEA90E20E94882C46
S11310D0892B09F47CC0BE016F5B7F4F81EB90E2EA
S11310E00E94882C892B09F479C0BE016F5B7F4F65
S11310F084EB90E20E94882C892B09F476C0BE010F
S11311006F5B7F4F87EB90E20E94882C892B09F458
S113111073C0BE016F5B7F4F8AEB90E20E94882C04
S1131120892B09F470C0BE016F5B7F4F8DEB90E299
S11311300E94882C892B09F46DC0BE016F5B7F4F20
S113114080EC90E20E94882C892B09F46AC0BE01CD
S11311506F5B7F4F82EA90E20E94882C892B09F40E
S113116067C08AED90E20E944513CE018F5B9F4FCA
S11311700E94571361E086E990E20E94791765CFD7
S1131180A5EAEA2EA0E2FA2E8BEC90E20E94451327
S1131190C7010E945713F801EE0FFF1FEE0FFF1F48
S11311A0E151FF4D0280F381E02DCE0103960995B4
S11311B04CCFF8EAEF2EF0E2FF2E01E010E0E4CF8E
S11311C0EBEAEE2EE0E2FE2E02E010E0DDCF7EEA56
S11311D0E72E70E2F72E03E010E0D6CF61EBE62EA7
S11311E060E2F62E04E010E0CFCF54EBE52E50E29F
S11311F0F52E05E010E0C8CF47EBE42E40E2F42ED4
S113120006E010E0C1CF3AEBE32E30E2F32E07E024
S113121010E0BACF2DEBE22E20E2F22E08E010E02F
S1131220B3CF90ECE92E90E2F92E09E010E0ACCFB8
S1131230B2EAEB2EB0E2FB2E0AE010E0A5CF48E0C4
S113124050E0BC0180E090E00C94361A48E050E095
S1131250BC0180E090E00C944B1A20EC829FC0010A
S113126011244DEB50E080960C94361A20EC829FAA
S1131270C00111244DEB50E080960C944B1ACF938F
S1131280C82F8A3009F464C048E050E069EE77E280
S113129080E090E00E94361A8091EE2784FF40C0DF
S11312A04DEB50E067E471E280E290E00E944B1A5B
S11312B04DEB50E06CE072E280EE90E00E944B1A3D
S11312C04DEB50E066E873E280EA91E00E944B1A2D
S11312D04DEB50E063E474E280E692E00E944B1A26
S11312E04DEB50E069EC72E280E293E00E944B1A0D
S11312F088E0E4E0F2E2A9EEB7E201900D928A956B
S1131300E1F78091EE278F7E8093EE2748E050E04E
S113131069EE77E280E090E00E944B1A0E94E12699
S113132080E291E20E94451380E38C0F0E944013F7
S113133089E295E20E94451320ECC29FC00111246A
S11313404DEB50E066E178E28096CF910C94361A2A
S11313508BE191E20E945713F8DA96CF90E08B303C
S1131360910508F00895FC01EC51FF4F0C94362CC4
S113137041E060E080E00C94BC1541E060E081E075
S11313800C94BC1540E061E080E00C94BC1540E096
S113139061E081E00C94BC1540E060E081E00C94D5
S11313A0BC1540E060E080E00C94BC15CF9389E06C
S11313B0F7DA882349F0CAE040E060E080E00E9468
S11313C0BC158C2FCF91089584E0EADA882349F084
S11313D0C0E041E060E080E00E94BC158C2FCF911A
S11313E0089585E0DDDA882349F0C1E040E060E05B
S11313F081E00E94BC158C2FCF91089586E0D0DA4D
S1131400882349F0C2E040E061E080E00E94BC151E
S11314108C2FCF91089587E0C3DA882349F0C3E085
S113142040E061E081E00E94BC158C2FCF910895CB
S11314308AE0B6DA882349F0C4E041E060E081E064
S11314400E94BC158C2FCF91089581E0A9DA8823DE
S113145011F0C5E0BECF83E0A3DA882311F0C6E023
S1131460C5CF82E09DDA882311F0C8E0CCCF98DAAA
S1131470882311F0C7E0D4CF8BE092DA882311F0EF
S1131480C9E0DBCFC091EE27CF704C2F50E04B303A
S1131490510508F096CFFA01E151FF4F0C94362C18
S11314A0CF93DF93CDB7DEB72A97CDBFDEBF80934E
S11314B0F7269093F8268AE0E9E6F0E2DE01119639
S11314C001900D928A95E1F78AE0FE013196A9EF29
S11314D0B7E201900D928A95E1F78AE0E9EFF7E22D
S11314E0A3E0B8E201900D928A95E1F72A96CDBF68
S11314F0DEBFDF91CF910C946927CF92DF92EF92F8
S1131500FF920F931F93613009F4B5C0611124C099
S113151041E050E060E070E0082E04C0440F551F25
S1131520661F771F0A94D2F7409550956095709581
S11315300091F3261091F4262091F5263091F62699
S113154004231523262337230093F3261093F4262C
S11315502093F5263093F626813139F01F910F91AF
S1131560FF90EF90DF90CF9008958091F3269091B3
S1131570F426A091F526B091F6264091EF265091DD
S1131580F0266091F1267091F22684FD95C04E7F7D
S113159085FF95C0426086FF95C0486087FF95C06F
S11315A0406193FF95C0406492FF95C040684093AA
S11315B0EF265093F0266093F1267093F226E42FE1
S11315C04091EB265091EC266091ED267091EE2629
S11315D095FFADC0416094FFA8C0426091FFA3C0D5
S11315E0446090FF9EC0486096FF99C040628C01A1
S11315F09D0100271078012B022B032B09F485C0D1
S113160040644093EB265093EC266093ED26709350
S1131610EE268C019D01017011272227332780FFBC
S113162065C082FF86C087E08093402080930028B5
S1131630E09301284093022890910A28981305C04A
S113164080910B28E81709F48EC0809100289091AE
S11316500128A091022880930A2890930B28A09334
S11316600C2881E08093EA261F910F91FF90EF9060
S1131670DF90CF90089501E010E020E030E0082EE4
S113168004C0000F111F221F331F0A94D2F7409188
S1131690F3265091F4266091F5267091F626402B9E
S11316A0512B622B732B4093F3265093F4266093B3
S11316B0F5267093F62650CF416085FD6BCF4D7FA4
S11316C086FD6BCF477F87FD6BCF4F7E93FD6BCF3E
S11316D04F7B92FD6BCF4F774093EF265093F026CC
S11316E06093F1267093F226E42F6ACF6C017D019A
S11316F052E0C522DD24EE24FF2481FF22C082FFB4
S11317001EC085E08093402091CF4F7B4093EB2611
S11317105093EC266093ED267093EE267ACF4F7D9E
S113172066CF477F61CF4B7F5CCF4D7F57CF4E7FD6
S113173052CF83FFDBCF81E08093402077CF83FDBE
S113174017C0012B022B032B21F01092402080E0C4
S11317506DCF82FD11C0CD28CE28CF2889F084E03A
S11317608093402063CF80910C2848136ECFF6CE2F
S113177083E0809340205ACF86E08093402056CF68
S113178083FD04C088E08093402050CF82E08093A2
S113179040204CCF1F93CF93DF93CDB7DEB726976E
S11317A0CDBFDEBF182F9B01E82FF0E086E1189F24
S11317B0D0011124AF56BF4F6091F7267091F826DF
S11317C06A0F7B1F29833A834B835C83EE0FFF1FD1
S11317D0E95CFE4D9E012B5F3F4FAE014F5F5F4FB3
S11317E080819181C7D78D8111110CC08093FC2712
S11317F08E818093FD272696CDBFDEBFDF91CF91EA
S11318001F9108958093FE279E819093FF27309126
S113181006282091FC273217D1F08091FC27909163
S1131820FD27A091FE27B091FF278093062890936F
S11318300728A0930828B093092881E08093EA261A
S11318402696CDBFDEBFDF91CF911F9108953091D1
S113185007282091FD273213E0CF20910828821316
S1131860DCCF809109289813D8CFC5CFCF93DF93CD
S1131870C9EFD7E289910E944A2488E2C330D8078D
S1131880C9F7DF91CF910895CF93DF93CDB7DEB73A
S11318902A97CDBFDEBF80930027909301278AE06B
S11318A0E3E7F0E2DE01119601900D928A95E1F7EB
S11318B08AE0FE013196A9EFB7E201900D928A9574
S11318C0E1F78AE0E9EFF7E2A3E0B8E201900D92D4
S11318D08A95E1F72A96CDBFDEBFDF91CF910C94B4
S11318E06C270F931F93613009F496C0611124C0D3
S11318F041E050E060E070E0082E04C0440F551F42
S1131900661F771F0A94D2F740955095609570959D
S11319100091FC261091FD262091FE263091FF2691
S113192004231523262337230093FC261093FD2636
S11319302093FE263093FF26813119F01F910F91D9
S113194008958091FC269091FD26A091FE26B091E9
S1131950FF262091FB2684FD80C02E7FE22F85FF89
S113196080C0E26086FF80C0E86087FF80C0E061DD
S113197093FF80C0E06492FF80C0E068E093FB26A0
S11319802091FA2695FF80C02160F22F94FF80C039
S1131990F26091FF80C0F46090FF80C0F86096FF11
S11319A080C0F062AC01BD0144275078452B462B22
S11319B0472B09F480C0F064F093FA26AC01BD0112
S11319C0417055276627772780FF80C082FF8CC02F
S11319D087E08093412080930028E0930128F093CE
S11319E0022890910A28981305C080910B28E817C3
S11319F009F494C08091002890910128A0910228B4
S1131A0080930A2890930B28A0930C2881E080935C
S1131A10F9261F910F91089501E010E020E030E0D5
S1131A20082E04C0000F111F221F331F0A94D2F77F
S1131A304091FC265091FD266091FE267091FF2670
S1131A40402B512B622B732B4093FC265093FD2685
S1131A506093FE267093FF266FCF2160E22F85FDF1
S1131A6080CFED7F86FD80CFE77F87FD80CFEF7E3F
S1131A7093FD80CFEF7B92FD80CFEF77E093FB2641
S1131A802091FA2695FD80CF2E7FF22F94FD80CFF2
S1131A90FD7F91FD80CFFB7F90FD80CFF77F96FD8A
S1131AA080CFFF7DAC01BD0144275078452B462BE8
S1131AB0472B09F080CFFF7BF093FA26AC01BD01E0
S1131AC0417055276627772780FD80CF8C019D01C3
S1131AD0027011272227332781FF0EC082FF0AC01C
S1131AE085E08093412077CF83FFF0CF81E080931E
S1131AF0412071CF83FD17C0452B462B472B21F086
S1131B001092412080E067CF82FD11C0012B022B8F
S1131B10032B89F084E0809341205DCF80910C28D1
S1131B208F1368CF0BCF83E08093412054CF86E09E
S1131B308093412050CF83FD04C088E080934120EE
S1131B404ACF82E08093412046CF1F93CF93DF9307
S1131B50CDB7DEB72697CDBFDEBF182F9B01E82F88
S1131B60F0E086E1189FD0011124AF56BF4F609179
S1131B700027709101276A0F7B1F29833A834B83C7
S1131B805C83EE0FFF1FE55CFE4D9E012B5F3F4F14
S1131B90AE014F5F5F4F80819181ECD58D81111132
S1131BA00CC08093FC278E818093FD272696CDBFA1
S1131BB0DEBFDF91CF911F9108958093FE279E8110
S1131BC09093FF27309106282091FC273217D1F0FB
S1131BD08091FC279091FD27A091FE27B091FF27CB
S1131BE08093062890930728A0930828B093092887
S1131BF081E08093F9262696CDBFDEBFDF91CF9199
S1131C001F910895309107282091FD273213E0CFCA
S1131C10209108288213DCCF809109289813D8CF0B
S1131C20C5CFCF93DF93C9EFD7E289910E944A24AD
S1131C3088E2C330D807C9F7DF91CF910895809324
S1131C400A2790930B270C9463272F923F924F926D
S1131C505F926F927F928F929F92AF92BF92CF9238
S1131C60DF92EF92FF920F931F93CF93DF93CDB741
S1131C70DEB76397CDBFDEBF613009F413C16111D4
S1131C8031C1412C512C3201439404C0440C551CE5
S1131C90661C771C8A95D2F7409450946094709493
S1131CA08091062790910727A0910827B0910927D2
S1131CB0482259226A227B22409206275092072703
S1131CC06092082770920927C0900A27D0900B27AA
S1131CD0760186E0E80EF11C00E010E0812C912CE6
S1131CE0292D08C00F5F1F4F89E0E80EF11C263034
S1131CF008F083C0D301C201002E04C0B695A79595
S1131D00979587950A94D2F780FF1BC0F701359702
S1131D10818183FD16C0F7019080992071F0A22E75
S1131D20B12C692D70E0A501CE0101962B8B0E9488
S1131D306B2C2B89892B09F4E7C0F701319780813B
S1131D40882A0F30110571F6922EF5E0F21708F487
S1131D5055C0560193E9A90EB11CF601EB56FF4F8D
S1131D60EF83F887C60189569F4F89879A873496EF
S1131D70EB87FC8742968D879E877296EF87F88B58
S1131D800496898B9A8B16019FEA290E311C80E1F7
S1131D90C82ED12CD301C2010C2C04C0B695A79532
S1131DA0979587950A94D2F780FF1EC08C2D90E0FA
S1131DB0FC017197E730F10508F45CC08501F80176
S1131DC09180992071F0E22EF12C692D70E0A70129
S1131DD0CE0101962B8B0E946B2C2B89892B09F445
S1131DE08AC0F8018081882AF7E1CF16D10429F04E
S1131DF08FEFC81AD80A263068F2922E81EA0E9420
S1131E004A2481E00E944A2480E00E944A24882DCA
S1131E100E944A248E010F5F1F4FF12C0AC0F80163
S1131E2080810E944A24F3940F5F1F4FF6E0FF164F
S1131E3059F0F914A0F380E00E944A24F3940F5F50
S1131E401F4FF6E0FF12F5CF6396CDBFDEBFDF91E3
S1131E50CF911F910F91FF90EF90DF90CF90BF90A3
S1131E60AF909F908F907F906F905F904F903F9036
S1131E702F900895E650FF4F0C94362C0F85188947
S1131E809ECF0D851E859BCF0B851C8598CF09851C
S1131E901A8595CF0F81188592CF09891A898FCF1A
S1131EA081018DCF412C512C3201439404C0440C48
S1131EB0551C661C771C8A95D2F780910627909151
S1131EC00727A0910827B0910927482A592A6A2A86
S1131ED07B2A409206275092072760920827709227
S1131EE00927F2CE409006275090072760900827D4
S1131EF070900927E9CEE1E0F0E0EC0FFD1FEE0D54
S1131F00FF1D90822F5F6DCFE1E0F0E0EC0FFD1F2D
S1131F10EA0DFB1D90822F5F10CF97CEFF920F9397
S1131F201F93CF93DF93CDB7DEB72897CDBFDEBF26
S1131F309B01082F10E060910A2770910B2796E10E
S1131F40899F600D711D1124C8010496F82EFF0CA1
S1131F50FF0C2D833E834F8358876D557F4FF801C7
S1131F60EE0FFF1FE15CFE4D9E012F5F3F4FAE0160
S1131F704B5F5F4F80819181B5D3F801EC5FF84DE1
S1131F808081833009F45BC0843009F44BC0823013
S1131F9001F184E08083F801EE5FF84D80818130A7
S1131FA041F18130A8F1843081F58B819C8197FDCA
S1131FB059C0892B29F081E0808361E08F0D45DED3
S1131FC02896CDBFDEBFDF91CF911F910F91FF9077
S1131FD0089589819A8197FDDECF84E0808360E053
S1131FE082E08F0D32DEF801EE5FF84D80818130A2
S1131FF0C1F68B819C811816190614F384E0808342
S113200060E081E08F0D21DEDBCF84E08083D8CFD8
S11320108B819C8197FDD4CF84E0808360E08F2DF9
S113202014DECECF89819A8197FD16C0892B09F4DD
S1132030B2CF83E0808361E08F0D07DEACCF89816E
S11320409A81181619060CF4A6CF84E0808360E008
S113205083E08F0DFADD9FCF82E0808361E08F0DF6
S1132060F4DD99CF108261E08F2DEFDDA9CF80934D
S11320701E2790931F270E94662744E150E060E0EA
S113208070E081E197E270C62F923F924F925F9287
S11320906F927F928F929F92AF92BF92CF92DF9274
S11320A0EF92FF920F931F93CF93DF93CDB7DEB7D9
S11320B06397CDBFDEBF10921927613009F41CC1AC
S11320C061113AC1412C512C3201439404C0440C97
S11320D0551C661C771C8A95D2F7409450946094E2
S11320E0709480911A2790911B27A0911C27B0917E
S11320F01D27482259226A227B2240921A27509295
S11321001B2760921C2770921D27C0901E27D09019
S11321101F27760186E0E80EF11C00E010E0812C18
S1132120912C292D21C0F7019080992071F0A22EC5
S1132130B12C692D70E0A501CE0101962B8B0E9474
S11321406B2C2B89892B09F409C1F7013197808104
S1132150882A0F30110511F10F5F1F4F89E0E80E37
S1132160F11C263008F073C0D301C201002E04C054
S1132170B695A795979587950A94D2F780FFE9CFEE
S1132180F7013597818183FFCECF8770909119270E
S1132190982B909319270F301105F1F6922EF5E044
S11321A0F21708F455C0560193E9A90EB11CF601C3
S11321B0EB56FF4FEF83F887C60189569F4F8987F7
S11321C09A873496EB87FC8742968D879E87729612
S11321D0EF87F88B0496898B9A8B16019FEA290E58
S11321E0311C80E1C82ED12CD301C2010C2C04C0B7
S11321F0B695A795979587950A94D2F780FF1EC048
S11322008C2D90E0FC017197E730F10508F45CC077
S11322108501F8019180992071F0E22EF12C692D4D
S113222070E0A701CE0101962B8B0E946B2C2B89A9
S1132230892B09F48AC0F8018081882AF7E1CF1636
S1132240D10429F08FEFC81AD80A263068F2922EEA
S113225081EA0E944A2481E00E944A2480E00E948C
S11322604A24882D0E944A248E010F5F1F4FF12CAF
S11322700AC0F80180810E944A24F3940F5F1F4F23
S1132280F6E0FF1659F0F914A0F380E00E944A2406
S1132290F3940F5F1F4FF6E0FF12F5CF6396CDBFA7
S11322A0DEBFDF91CF911F910F91FF90EF90DF90F0
S11322B0CF90BF90AF909F908F907F906F905F90E2
S11322C04F903F902F900895EF5FFE4F0C94362C63
S11322D00F8518899ECF0D851E859BCF0B851C8588
S11322E098CF09851A8595CF0F81188592CF0989D2
S11322F01A898FCF81018DCF412C512C3201439407
S113230004C0440C551C661C771C8A95D2F7809136
S11323101A2790911B27A0911C27B0911D27482AAA
S1132320592A6A2A7B2A40921A2750921B276092C4
S11323301C2770921D27E9CE40901A2750901B2726
S113234060901C2770901D27E0CEE1E0F0E0EC0FD8
S1132350FD1FEE0DFF1D90822F5F6DCFE1E0F0E0D9
S1132360EC0FFD1FEA0DFB1D90822F5FEECE8CCE8D
S1132370FF920F931F93CF93DF93CDB7DEB72C97C4
S1132380CDBFDEBF19861A861B861C866D837E83AD
S11323904F835887082F10E026E1829FC001112443
S11323A08F569F4F60911E2770911F27680F791FCA
S11323B0FB01808186FD6DC0F801EE0FFF1FED5B10
S11323C0FE4D9E01275F3F4FAE014B5F5F4F808103
S11323D091819ED289859A85009709F096C020E064
S11323E030E08B859C85009731F06EE670E00E94AA
S11323F0E52B6B877C87232B51F48B859C85892B5C
S113240031F49091192780910C279817C9F181E133
S113241097E2C3D48823A1F144E150E060E070E086
S113242081E197E2A1D48091192780930C2781EA56
S11324300E944A2483E00E944A24809119270E9422
S11324404A2489850E944A242A852F708B859C857D
S113245082959295907F9827807F9827822B0E945F
S11324604A248B859C859595879595958795959513
S11324708795959587950E944A2480E00E944A2476
S11324802C96CDBFDEBFDF91CF911F910F91FF90AE
S11324900895C8010496F82EFF0CFF0C6E5E7F4F62
S11324A0F801EE0FFF1FED5BFE4D9E012F5F3F4FC6
S11324B0AE014B5F5F4F8081918114D1F801E15FE0
S11324C0F84D8081833049F1843009F43DC0823075
S11324D081F184E08083F801E35FF84D80818130ED
S11324E009F43FC008F44CC0843009F046C02B8185
S11324F03C8137FD55C0232B29F081E0808361E0C6
S11325008F0DC2DD29853A8576CF6EE670E00E9494
S1132510E52B69877A879B0164CF89819A81181694
S11325201906CCF284E0808360E083E08F0DACDD9B
S1132530D2CF89819A8197FDCECF84E0808360E0F9
S113254082E08F0DA1DDC7CF89819A8197FD22C0DA
S1132550892B09F4C0CF83E0808361E08F0D94DD83
S1132560BACF8B819C811816190664F284E08083AB
S113257060E081E08F0D88DDC5CF84E08083C2CF29
S11325808B819C8197FDBECF84E0808360E08F2D9A
S11325907BDDB8CF82E0808361E08F0D75DD9BCF5A
S11325A0108261E08F2D70DDADCF0F931F93CF9319
S11325B0DF93CDB7DEB72797CDBFDEBF87E0EDE76A
S11325C0F0E2DE01119601900D928A95E1F760E147
S11325D084E04FD6E0E1F2E0E491F0E0608166232C
S11325E061F08F010F5F1F4F80EA99E00E9449223A
S11325F0F80161918F016111F7CFECD5BE016F5FD6
S11326007F4F80EA99E00E94A220811125C0E2E276
S1132610F2E0E491F0E06081662361F08F010F5FE6
S11326201F4F80EA99E00E944922F80161918F01CD
S11326306111F7CF6DE080EA99E00E9449226AE0D7
S113264080EA99E00E9449222796CDBFDEBFDF9140
S1132650CF911F910F910895E6E2F2E0E491F0E04A
S11326606081662339F38F010F5F1F4F80EA99E081
S11326700E944922F80161918F016111F7CFDACFED
S1132680682F80EA99E00C944922CF93DF93FC01F0
S11326906081662349F0EC01219680EA99E00E946A
S11326A0492269916111F9CFDF91CF910895CF93B8
S11326B0DF93FC016081662349F0EC01219680EAF6
S11326C099E00E94492269916111F9CF6DE080EA95
S11326D099E00E9449226AE080EA99E0DF91CF9173
S11326E00C944922CF93DF93EA01A881B981EC01CC
S11326F0E881F981EA014A815B81EC018A819B814D
S1132700EA1BFB0B841B950BAF01F7FD29C0519508
S113271041955109EB01A881B981B195A195B10900
S1132720A417B50714F4E0E0F0E0AC0197FD1DC078
S1132730519541955109DB0112966D917C91139746
S11327407195619571096417750714F480E090E040
S1132750E901E883F9838A839B83DF91CF9108950C
S1132760442755274E1B5F0BD2CF44275527481BC0
S1132770590BDECFCF92DF92EF92FF920F931F930C
S1132780CF93DF936B01E901FA01A081B181FC01D0
S113279020813181A21BB30BFA01E280F380FC019A
S11327A082819381E81AF90ACD01B7FD77C091952A
S11327B081959109F6012289338931952195310951
S11327C02817390784F4C701F7FC9DC091958195BA
S11327D09109F60124893589319521953109281704
S11327E039070CF448C01A161B060CF06DC09D0185
S11327F0A1E8BFEF0E943C2CF601248535854427CF
S113280037FD4095542F0E941A2C89011E141F0471
S11328100CF049C09701A1E8BFEF0E943C2CF601DF
S113282020893189442737FD4095542F0E941A2C62
S1132830622F232F003811050CF1862F922F813837
S1132840FFEF9F0794F08038910564F40FE7088345
S11328508983DF91CF911F910F91FF90EF90DF90CB
S1132860CF9008958FE790E0F1CF81E89FEF803813
S1132870910564F3F7CF80E000E0E9CF01388FEFF2
S11328801807C4F1862F922F8138EFEF9E075CF171
S113289080389105E4F28FE790E0D9CF8827992713
S11328A08A1B9B0B84CF2FE730E0D7010E94512C69
S11328B0F60126853785442737FD4095542F0E941D
S11328C01A2C622F232FB6CF2FE730E00E94512C11
S11328D0F60122853385442737FD4095542F0E9405
S11328E01A2C890193CF81E89FEF803891050CF46D
S11328F0AECFD1CF01E81FEF862F922F8138EFEFB3
S11329009E0734F6F0CF882799278E199F095ECF4A
S1132910CF93DF93D901EA01E881F981EC012881A1
S11329203981E21BF30BEA014A815B81EC018A8164
S11329309B81481B590BCF01F7FD58C09195819598
S11329409109EB012A893B89319521953109281791
S113295039077CF4CA0157FD61C0919581959109AD
S1132960EB012C893D8931952195310928173907C7
S11329704CF1F195E195F109519541955109E11514
S1132980D8E0FD0724F1411588EF5807A4F041155C
S1132990C8E05C076CF49FEF87E09C9311968C93DE
S11329A0119712964D935C931397DF91CF910895ED
S11329B04FEF57E0F0CF40E058EF4115C8E05C0717
S11329C054F3F6CF40E050E090E080E0E6CFE1152C
S11329D0D8EFFD07E4F0411588EF58078CF0411556
S11329E0C8E05C0744F49E2F8F2FD7CF8827992700
S11329F08E1B9F0BA3CF4FEF57E09E2F8F2FCDCF72
S1132A0040E058EF4115C8E05C076CF3F4CFE0E018
S1132A10F8EF411588EF580714F7F2CF8827992764
S1132A20841B950B9ACFCF93DF93CDB7DEB728974E
S1132A30CDBFDEBFCFD380E0E2D30E941B258AEA5C
S1132A4090EAA1E0B0E00197A109B1090097A105BE
S1132A50B105C9F7789480914800817F84608093A0
S1132A60480080914800816080934800889540ED3B
S1132A7057E060E070E0CE01019676D10E94D6095D
S1132A80182F05C088E00E94D004882379F3CE0172
S1132A90019683D18823B1F3812F0E943F0980914D
S1132AA048008E7F8093480061E089E790E0D8D4A5
S1132AB0FFCF8F929F92AF92BF92CF92DF92EF920D
S1132AC0FF92CF93C82F86D380E099D32AD16B018C
S1132AD07C019091A80692FDFCCF20E030E02F5FAE
S1132AE03F4F253580ED3807D1F71BD14B015C01F1
S1132AF081E085D36FD380EDC80E87E0D81EE11C3A
S1132B00F11C8C149D04AE04BF0458F481E0CF91F1
S1132B10FF90EF90DF90CF90BF90AF909F908F90F9
S1132B2008958C2F80DF8093202724EF31E042E04A
S1132B3066E081E297E20E94792224EF31E041E0ED
S1132B4062E088E297E20E94792224EF31E042E0D9
S1132B5062E08FE297E20E94792264E681E297E2E2
S1132B600E94AE2364E688E297E20E94AE2364E604
S1132B708FE297E20C94AE230F931F93CF93DF93CE
S1132B80C62F142F853608F084E6A4E6A81B2091EE
S1132B90262730912727B0E00E94422C24E630E01B
S1132BA040E050E00E94F82B80912327E0912127F8
S1132BB0F0912227E6FF62C0813009F471C08230AF
S1132BC009F471C06C2FC53608F064E6A4E6A61BB0
S1132BD000912027011183C081E090E0EC01CC0F2B
S1132BE0DD1FCC0FDD1FCC0FDD1FC81BD90BCF5D44
S1132BF0D84D2D813E81B0E00E94422C24E630E085
S1132C0040E050E00E94F82B8A81E881F981E6FFD8
S1132C104DC0813009F475C08230E1F1153608F0F9
S1132C2014E6A4E6A11B01115DC082E090E0EC0172
S1132C30CC0FDD1FCC0FDD1FCC0FDD1FC81BD90B44
S1132C40CF5DD84D2D813E81B0E00E94422C24E618
S1132C5030E040E050E00E94F82B8A81E881F9815D
S1132C60E6FF2FC0813009F442C0823011F422AF54
S1132C7033AFDF91CF911F910F910895823099F076
S1132C8060F0833009F44AC0843009F09BCF26AF4A
S1132C9037AF98CF22AF33AFC1CF813009F092CF95
S1132CA020AF31AF8FCF22AF33AF8CCF823091F3CF
S1132CB028F1833081F1843009F0B0CF26AF37AFEB
S1132CC0ADCF8230A1F288F08330F1F0843089F600
S1132CD026AF37AFDF91CF911F910F91089582E016
S1132CE090E07CCF81E090E0A2CF813011F620AF5C
S1132CF031AFDF91CF911F910F910895813009F089
S1132D008DCF20AF31AF8ACF24AF35AFDF91CF91D4
S1132D101F910F91089524AF35AF80CF24AF35AF05
S1132D2051CF2FB7F894609138277091392780914B
S1132D303A2790913B272FBF08952FB7F89480919D
S1132D40382790913927A0913A27B0913B270196D3
S1132D50A11DB11D8093382790933927A0933A275A
S1132D60B0933B272FBF08950F931F93EFB7F894A9
S1132D70009138271091392720913A2730913B2729
S1132D80EFBFFC0100831183228333834483558383
S1132D90668377831F910F9108950F931F93FC010E
S1132DA04481558166817781452B462B472B01F160
S1132DB08FB7F894409138275091392760913A277A
S1132DC070913B278FBF0081118122813381401B89
S1132DD0510B620B730B81E00481158126813781CD
S1132DE0401751076207730718F01F910F91089558
S1132DF080E01F910F910895FC01148215821682C0
S1132E00178208950F931F93CF93DF938C0180E46F
S1132E1098E00E94EF1FC0E4D8E088858E6F888711
S1132E208981887F898318A219A280E09DE78EA3F7
S1132E309FA38C8581608C87B80180E498E00E9410
S1132E4075208E818C7F8E838E8181608E838881B4
S1132E50807F8160888380E498E0DF91CF911F9127
S1132E600F910C94302080E498E00C94EF1FE0E480
S1132E70F8E0848581608487089560E183E0F9D176
S1132E8080E095E202DCA6D16EE570E280EA98E08B
S1132E900E94A220811118C085E195E208DC40E47B
S1132EA068E677E282E697E20E94430540E262E444
S1132EB077E28CE397E20E9443058091A3088F7C1C
S1132EC080618093A308089580E195E2F0DBE7CF69
S1132ED0CF93C82F6C2F8CE397E20E944C05882374
S1132EE0C9F38091A3088C7F81608093A308CF915C
S1132EF008950F931F93CF93DF93062FFC01108146
S1132F00112391F0EC012196612F8CE397E20E944A
S1132F104C058823C9F38091A3088C7F816080933A
S1132F20A30819911111F0CF011105C0DF91CF91C0
S1132F301F910F91089560E08CE397E20E944C0585
S1132F408823C9F38091A3088C7F81608093A308B0
S1132F50DF91CF911F910F9108951F93CF93DF932A
S1132F60FC011081112391F0EC012196612F8CE377
S1132F7097E20E944C058823C9F38091A3088C7FB3
S1132F8081608093A30819911111F0CF6DE08CE357
S1132F9097E20E944C058823C9F38091A3088C7F93
S1132FA081608093A3086AE08CE397E20E944C0559
S1132FB08823C9F38091A3088C7F81608093A30840
S1132FC0DF91CF911F910895462FBC0182E697E2CD
S1132FD00C948F051F920F920FB60F9211240BB60B
S1132FE00F922F933F934F935F936F937F938F939E
S1132FF09F93AF93BF93CF93EF93FF93CFB7F8947F
S11330006091A0086B31E1F082E697E20E944C05E2
S113301080E88093A108CFBFFF91EF91CF91BF913A
S1133020AF919F918F917F916F915F914F913F915C
S11330302F910F900BBE0F900FBE0F901F901895FD
S113304061E089E790E00CD2FFCF1F920F920FB698
S11330500F9211240BB60F922F933F934F935F93CC
S11330606F937F938F939F93AF93BF93EF93FF934C
S1133070CF93DF931F92CDB7DEB7BE016F5F7F4F53
S11330808CE397E20E946D0581111BC08091A30817
S11330908C7F8093A3080F90DF91CF91FF91EF91E4
S11330A0BF91AF919F918F917F916F915F914F915C
S11330B03F912F910F900BBE0F900FBE0F901F905A
S11330C0189589818093A008E6CFDF92EF92FF9252
S11330D00F931F93CF93DF93CDB7DEB72897CDBF60
S11330E0DEBF8C017B0168E28CE397E20E944C0511
S11330F08823C9F38091A3088C7F81608093A308FF
S11331004AE0BE016F5F7F4FC8010E94912CFC0111
S1133110D080DD20A9F08C010F5F1F4F6D2D8CE353
S113312097E20E944C058823C9F38091A3088C7F01
S113313081608093A308F801D1908F01D110EECF64
S11331406CE28CE397E20E944C058823C9F38091DA
S1133150A3088C7F81608093A3084AE0BE016F5F5F
S11331607F4FC7010E94912CFC01F080FF20A9F041
S11331708C010F5F1F4F6F2D8CE397E20E944C056B
S11331808823C9F38091A3088C7F81608093A3086E
S1133190F801F1908F01F110EECF69E28CE397E230
S11331A00E944C058823C9F38091A3088C7F816019
S11331B08093A3082896CDBFDEBFDF91CF911F91E6
S11331C00F91FF90EF90DF9008958AE00E945122C2
S11331D00C946C2289E195E258DAA89508958091BF
S11331E0652090916620009729F0019780936520CF
S11331F09093662089E195E248DAA89508958111B3
S113320002C00C9464220C946C22882351F0823006
S113321039F484E690E080936720909368200895C1
S1133220089584E690E08093652090936620089545
S113323047E050E06FEF7FEF80E790E00E94812C41
S11332409FB7F894809150008260809350009FBF94
S11332508091510081FFFCCF61E080E490E000D1D7
S11332609FB7F894809150008E7F809350009FBF49
S113327008959FB7F894E82FF0E0E059FF4F609568
S11332808081862380839FBF08959FB7F894E82F99
S1133290F0E0E059FF4F8081862B80839FBF089523
S11332A08115924009F008958091A82791E0980F24
S11332B09093A8278111F7CF62E081E0DACF8115DE
S11332C0924009F008958091A82781508093A827FF
S11332D08111F8CF62E081E0D8CF1F93CF93DF93C1
S11332E0EC011FB7F894C11582E0D80781F08881FA
S11332F0816088831FBF9FB7F89480910E288F5FE9
S113330080930E289FBFDF91CF911F9108958091E4
S1133310A82791E0980F9093A8278111E8CF62E045
S113332081E0A7DFE4CFFF920F931F93CF93DF9346
S1133330EB018115924031F0DF91CF911F910F91F4
S1133340FF90089561E270E082E053D1082F10E00D
S113335060E270E082E04DD1102F0027082BFFB609
S1133360F89480E092E09CDF20910002217082E0DA
S11333708093000200930C0210930D028C819D81B6
S113338080931802909319028981809302028B81A1
S1133390809304028A8180930302888180930102CE
S11333A02093000280E092E08ADFFFBEDF91CF919C
S11333B01F910F91FF900895FF920F931F93CF9346
S11333C0DF93EC018B01FFB6F8946ADF888D998D49
S11333D0F801848395838A8181838C8183838B81A3
S11333E0828389818083CE016ADFFFBEDF91CF9122
S11333F01F910F91FF900895FF920F931F93CF9306
S1133400DF93EC018A01FFB6F8944ADFF80180816A
S113341088A382818AA3818189A3CE0150DFFFBE64
S1133420DF91CF911F910F91FF900895FF920F9319
S11334301F93CF93DF93EC018A01FFB6F89430DF3A
S113344088A1F80180838AA1828389A18183CE0126
S113345036DFFFBEDF91CF911F910F91FF9008954A
S11334601BBEFC0128ED24BF608308959B0160917D
S1133470CF0167FDFCCF6091CC0168606093CC0103
S1133480BC01705FC9010E94782C8091CC01877FB8
S11334908093CC0108957F928F929F92AF92BF92B6
S11334A0CF92DF92EF92FF920F931F93CF93DF930C
S11334B07C01EB016A014115510509F442C043E363
S11334C0A42E55E3B52E66E3962EC7018F71992776
S11334D0892B29F420E2C216D10408F040C0788078
S11334E087010F5F1F4F8090CA018091CF0187FD34
S11334F0FCCF8091CF0181FF06C09092CA0161E0A8
S11335008BEC91E0ADDF8091CF0187FDFCCFA092E1
S1133510CA011092C201F092C101E092C0017092FE
S1133520C401B092CA0161E08BEC91E099DF809212
S1133530CA01219681E0C81AD1087801C114D104C6
S113354021F6DF91CF911F910F91FF90EF90DF90C3
S1133550CF90BF90AF909F908F907F90089590915F
S1133560CA018091CF0187FDFCCFA092CA011092BD
S1133570C2011092C1018E01005E1F4FFE018E2F09
S11335808C1B8093C00181918093C401E017F107E3
S1133590B1F79093CA01C701969587959295829544
S11335A08F7089279F7089272091CF0127FDFCCF39
S11335B09927880F991F82959295907F9827807FED
S11335C098271092C2019093C1018093C001C091C9
S11335D0CA01B092CA0161E08BEC91E041DFC09373
S11335E0CA0180E2E80EF11C20E2C21AD108E80107
S11335F0A5CF4091CA01E62FF72F8093CA01849189
S11336004093CA0108951F920F920FB60F9211248E
S11336100BB60F922F933F934F935F936F937F93C8
S11336208F939F93AF93BF93EF93FF93E091DF2723
S1133630F091E027309709F00995FF91EF91BF9140
S1133640AF919F918F917F916F915F914F913F9136
S11336502F910F900BBE0F900FBE0F901F901895D7
S11336601F920F920FB60F9211240BB60F922F9345
S11336703F934F935F936F937F938F939F93AF93F6
S1133680BF93EF93FF93E091DD27F091DE2730970E
S113369009F00995FF91EF91BF91AF919F918F919F
S11336A07F916F915F914F913F912F910F900BBE3E
S11336B00F900FBE0F901F9018951F920F920FB688
S11336C00F9211240BB60F922F933F934F935F9356
S11336D06F937F938F939F93AF93BF93EF93FF93D6
S11336E0E091DB27F091DC27309709F00995FF91F1
S11336F0EF91BF91AF919F918F917F916F915F9166
S11337004F913F912F910F900BBE0F900FBE0F90D2
S11337101F9018951F920F920FB60F9211240BB69B
S11337200F922F933F934F935F936F937F938F9356
S11337309F93AF93BF93EF93FF93E091D927F091B9
S1133740DA27309709F00995FF91EF91BF91AF9176
S11337509F918F917F916F915F914F913F912F91A5
S11337600F900BBE0F900FBE0F901F9018951F92D5
S11337700F920FB60F9211240BB60F922F933F9313
S11337804F935F936F937F938F939F93AF93BF9365
S1133790EF93FF93E091D727F091D827309709F062
S11337A00995FF91EF91BF91AF919F918F917F9177
S11337B06F915F914F913F912F910F900BBE0F909E
S11337C00FBE0F901F9018951F920F920FB60F9275
S11337D011240BB60F922F933F934F935F936F93E4
S11337E07F938F939F93AF93BF93EF93FF93E09156
S11337F0D527F091D627309709F00995FF91EF91DD
S1133800BF91AF919F918F917F916F915F914F91F4
S11338103F912F910F900BBE0F900FBE0F901F90F2
S113382018951F920F920FB60F9211240BB60F9298
S11338302F933F934F935F936F937F938F939F93B4
S1133840AF93BF93EF93FF93E091D327F091D427E5
S1133850309709F00995FF91EF91BF91AF919F9136
S11338608F917F916F915F914F913F912F910F9025
S11338700BBE0F900FBE0F901F9018951F920F92C2
S11338800FB60F9211240BB60F922F933F934F93C1
S11338905F936F937F938F939F93AF93BF93EF93B4
S11338A0FF93E091D127F091D227309709F0099541
S11338B0FF91EF91BF91AF919F918F917F916F9104
S11338C05F914F913F912F910F900BBE0F900FBEC0
S11338D00F901F9018951F920F920FB60F921124FC
S11338E00BB60F922F933F934F935F936F937F93F6
S11338F08F939F93AF93BF93EF93FF93E091CF2761
S1133900F091D027309709F00995FF91EF91BF917D
S1133910AF919F918F917F916F915F914F913F9163
S11339202F910F900BBE0F900FBE0F901F90189504
S11339301F920F920FB60F9211240BB60F922F9372
S11339403F934F935F936F937F938F939F93AF9323
S1133950BF93EF93FF93E091CD27F091CE2730975B
S113396009F00995FF91EF91BF91AF919F918F91CC
S11339707F916F915F914F913F912F910F900BBE6B
S11339800F900FBE0F901F9018951F920F920FB6B5
S11339900F9211240BB60F922F933F934F935F9383
S11339A06F937F938F939F93AF93BF93EF93FF9303
S11339B0E091CB27F091CC27309709F00995FF913E
S11339C0EF91BF91AF919F918F917F916F915F9193
S11339D04F913F912F910F900BBE0F900FBE0F9000
S11339E01F9018951F920F920FB60F9211240BB6C9
S11339F00F922F933F934F935F936F937F938F9384
S1133A009F93AF93BF93EF93FF93E091C927F091F6
S1133A10CA27309709F00995FF91EF91BF91AF91B3
S1133A209F918F917F916F915F914F913F912F91D2
S1133A300F900BBE0F900FBE0F901F9018951F9202
S1133A400F920FB60F9211240BB60F922F933F9340
S1133A504F935F936F937F938F939F93AF93BF9392
S1133A60EF93FF93E091C727F091C827309709F0AF
S1133A700995FF91EF91BF91AF919F918F917F91A4
S1133A806F915F914F913F912F910F900BBE0F90CB
S1133A900FBE0F901F9018951F920F920FB60F92A2
S1133AA011240BB60F922F933F934F935F936F9311
S1133AB07F938F939F93AF93BF93EF93FF93E09183
S1133AC0C527F091C627309709F00995FF91EF912A
S1133AD0BF91AF919F918F917F916F915F914F9122
S1133AE03F912F910F900BBE0F900FBE0F901F9020
S1133AF018951F920F920FB60F9211240BB60F92C6
S1133B002F933F934F935F936F937F938F939F93E1
S1133B10AF93BF93EF93FF93E091C327F091C42732
S1133B20309709F00995FF91EF91BF91AF919F9163
S1133B308F917F916F915F914F913F912F910F9052
S1133B400BBE0F900FBE0F901F9018951F920F92EF
S1133B500FB60F9211240BB60F922F933F934F93EE
S1133B605F936F937F938F939F93AF93BF93EF93E1
S1133B70FF93E091C127F091C227309709F009958E
S1133B80FF91EF91BF91AF919F918F917F916F9131
S1133B905F914F913F912F910F900BBE0F900FBEED
S1133BA00F901F9018951F920F920FB60F92112429
S1133BB00BB60F922F933F934F935F936F937F9323
S1133BC08F939F93AF93BF93EF93FF93E091BF279E
S1133BD0F091C027309709F00995FF91EF91BF91BB
S1133BE0AF919F918F917F916F915F914F913F9191
S1133BF02F910F900BBE0F900FBE0F901F90189532
S1133C001F920F920FB60F9211240BB60F922F939F
S1133C103F934F935F936F937F938F939F93AF9350
S1133C20BF93EF93FF93E091BD27F091BE273097A8
S1133C3009F00995FF91EF91BF91AF919F918F91F9
S1133C407F916F915F914F913F912F910F900BBE98
S1133C500F900FBE0F901F9018951F920F920FB6E2
S1133C600F9211240BB60F922F933F934F935F93B0
S1133C706F937F938F939F93AF93BF93EF93FF9330
S1133C80E091BB27F091BC27309709F00995FF918B
S1133C90EF91BF91AF919F918F917F916F915F91C0
S1133CA04F913F912F910F900BBE0F900FBE0F902D
S1133CB01F9018951F920F920FB60F9211240BB6F6
S1133CC00F922F933F934F935F936F937F938F93B1
S1133CD09F93AF93BF93EF93FF93E091B927F09134
S1133CE0BA27309709F00995FF91EF91BF91AF91F1
S1133CF09F918F917F916F915F914F913F912F9100
S1133D000F900BBE0F900FBE0F901F9018951F922F
S1133D100F920FB60F9211240BB60F922F933F936D
S1133D204F935F936F937F938F939F93AF93BF93BF
S1133D30EF93FF93E091B727F091B827309709F0FC
S1133D400995FF91EF91BF91AF919F918F917F91D1
S1133D506F915F914F913F912F910F900BBE0F90F8
S1133D600FBE0F901F9018951F920F920FB60F92CF
S1133D7011240BB60F922F933F934F935F936F933E
S1133D807F938F939F93AF93BF93EF93FF93E091B0
S1133D90B527F091B627309709F00995FF91EF9177
S1133DA0BF91AF919F918F917F916F915F914F914F
S1133DB03F912F910F900BBE0F900FBE0F901F904D
S1133DC018951F920F920FB60F9211240BB60F92F3
S1133DD02F933F934F935F936F937F938F939F930F
S1133DE0AF93BF93EF93FF93E091B327F091B42780
S1133DF0309709F00995FF91EF91BF91AF919F9191
S1133E008F917F916F915F914F913F912F910F907F
S1133E100BBE0F900FBE0F901F9018951F920F921C
S1133E200FB60F9211240BB60F922F933F934F931B
S1133E305F936F937F938F939F93AF93BF93EF930E
S1133E40FF93E091B127F091B227309709F00995DB
S1133E50FF91EF91BF91AF919F918F917F916F915E
S1133E605F914F913F912F910F900BBE0F900FBE1A
S1133E700F901F9018951F920F920FB60F92112456
S1133E800BB60F922F933F934F935F936F937F9350
S1133E908F939F93AF93BF93EF93FF93E091AF27DB
S1133EA0F091B027309709F00995FF91EF91BF91F8
S1133EB0AF919F918F917F916F915F914F913F91BE
S1133EC02F910F900BBE0F900FBE0F901F9018955F
S1133ED01F920F920FB60F9211240BB60F922F93CD
S1133EE03F934F935F936F937F938F939F93AF937E
S1133EF0BF93EF93FF93E091AD27F091AE273097F6
S1133F0009F00995FF91EF91BF91AF919F918F9126
S1133F107F916F915F914F913F912F910F900BBEC5
S1133F200F900FBE0F901F9018951F920F920FB60F
S1133F300F9211240BB60F922F933F934F935F93DD
S1133F406F937F938F939F93AF93BF93EF93FF935D
S1133F50E091AB27F091AC27309709F00995FF91D8
S1133F60EF91BF91AF919F918F917F916F915F91ED
S1133F704F913F912F910F900BBE0F900FBE0F905A
S1133F801F9018951F920F920FB60F9211240BB623
S1133F900F922F933F934F935F936F937F938F93DE
S1133FA09F93AF93BF93EF93FF93E091A927F09171
S1133FB0AA27309709F00995FF91EF91BF91AF912E
S1133FC09F918F917F916F915F914F913F912F912D
S1133FD00F900BBE0F900FBE0F901F901895CF93AC
S1133FE0CFB7F894811528E0920719F1803428E0BE
S1133FF0920731F1811529E0920721F181152AE018
S1134000920739F181159B4019F0CFBFCF910895E4
S113401061E086E02ED964E086E02BD99FB7F8945E
S113402080910E288F5F80930E289FBFCFBFCF91C2
S1134030089561E083E01DD964E083E01AD9EECFEE
S113404062E0F8CF61E084E014D964E084E011D93F
S1134050E5CF61E085E00DD964E085E00AD9DECFE3
S1134060CF93CFB7F8943FB7F89420910E282150FE
S113407020930E283FBF811528E09207D9F08034A1
S113408028E0920701F1811529E09207F1F08115EA
S11340902AE0920719F181159B4019F0CFBFCF9107
S11340A0089561E086E0F1D864E086E0EED8CFBF01
S11340B0CF91089561E083E0E8D864E083E0E5D837
S11340C0CFBFCF91089562E0F6CF61E084E0DDD800
S11340D064E084E0DAD8CFBFCF91089561E085E051
S11340E0D4D864E085E0D1D8D9CF811528E09207EF
S11340F0D1F0803428E09207D9F0811529E09207A5
S1134100E1F081152AE0920749F081159B4009F0FE
S113411008956093B3277093B42708956093BF27DD
S11341207093C02708956093DF277093E027089564
S11341306093D3277093D42708956093CB2770930B
S1134140CC2708958F929F92AF92BF92CF92DF9225
S1134150EF92FF920F931F93CF93DF93EC018B01A8
S1134160803A28E0920709F4F9C0803A39E09307CD
S113417009F4F9C0803A4AE0940709F4EAC08D8151
S11341808F738D83D80114968C91149715969C91F6
S11341901597892B16969C919111D4C090E0892B88
S11341A08D83F801C080D180E280F3808C8182FF0E
S11341B0C0C040E059E06DE370E007E010E020E0AB
S11341C030E04C155D056E057F0508F49EC0C016F1
S11341D0D106E206F30608F498C08C8182FFB4C0CD
S11341E0812CB8E49B2EB8EEAB2EBB24B394C5014E
S11341F0B401A70196010E94F82B2F3F3105410518
S1134200510508F4B5C02F3FF1E03F0741055105C2
S113421008F4E1C02F3F83E038074105510508F455
S113422018C12F3F97E039074105510508F413C120
S11342302F3FAFE03A074105510508F40EC12E3F68
S1134240BFE13B074105510508F409C12C3FEFE3E9
S11342503E074105510508F404C1283FFFE73F0725
S11342604105510508F4FFC0203F8FEF3807410591
S1134270510508F402C1203E9FEF390791E0490738
S1134280510508F4FCC0203CAFEF3A07A3E04A070D
S1134290510508F4F6C02038BFEF3B07B7E04B07E1
S11342A0510508F4F0C02115EFEF3E07EFE04E078B
S11342B0510508F4EAC021153E4F4F41510508F459
S11342C0E6C010E72AE030E0D701C60104C0880F39
S11342D0991FAA1FBB1F2A95D2F79C01AD01BC01EF
S11342E0CD019695879577956795785B87419E4F25
S11342F00E94F82B2150310941095109832F8F70F5
S1134300812B8F832E8381E001C080E09C819860A3
S11343109C839C8190619C83DF91CF911F910F912D
S1134320FF90EF90DF90CF90BF90AF909F908F90D1
S1134330089540E854E86EE170E003E010E020E006
S113434030E03FCF98E02BCFCC0CDD1CEE1CFF1CE3
S113435047CF60E185E00E94391911CF60E183E025
S11343600E9439190CCF60E184E00E94391907CF0B
S1134370D701C601880F991FAA1FBB1F880F991F59
S1134380AA1FBB1F880F991FAA1FBB1F881A990A4F
S1134390AA0ABB0A10E929EF3FEF6DEF7FEF621B1A
S11343A0730BA501940104C0220F331F441F551F32
S11343B06A95D2F7CA01B90146015701B694A79488
S11343C097948794680D791D8A1D9B1DA7019601FA
S11343D00E94F82B93CF4AEF242F332727FD3095E3
S11343E0142F1295107FD701C601880F991FAA1F99
S11343F0BB1F880F991FAA1FBB1F880F991FAA1FD5
S1134400BB1F812C78E4972E78EEA72EBB24B3949F
S1134410881A990AAA0ABB0A4E3F0CF4BECF2D5F34
S11344203F4FD701C60104C0880F991FAA1FBB1FA5
S11344302A95D2F79C01AD01BC01CD0196958795D3
S113444077956795680D791D8A1D9B1D0E94F82B31
S113445055CF4BEFC1CF4CEFBFCF4DEFBDCF4EEF9C
S1134460BBCF4FEFB9CF10E0212F332727FD309575
S11344702D5F3F4F1295107F27CF11E0F5CF12E04B
S1134480F3CF13E0F1CF14E0EFCF15E0EDCF16E05A
S1134490EBCFFC01818185FFFDCF608380E090E05C
S11344A00895609180006270616024E0829FC00181
S11344B011248C73682B80E890E00E94301A80915C
S11344C0820080FDFCCF0895609180006C7F616064
S11344D080E890E00C94301A609180006C73636003
S11344E080E890E00E94301A8091820080FDFCCF29
S11344F008958F929F92AF92BF92CF92DF92EF92E4
S1134500FF92CF93DF93EC014901623009F4D8C0E4
S113451008F063C0662309F4C0C0613091F480E4FC
S113452098E0888399832091400681E090E033E00D
S1134530340F032E01C0880F0A94EAF7282B209326
S113454040064A83423009F464C0433008F47CC016
S1134550433009F47FC0443011F480E88B838881B0
S113456099813DDDE881F9818181887F8360818340
S11345701D821E821C82E881F9818081807F808374
S1134580A12CB12C60E078E488EE91E0A5019401BF
S11345900E94F82B69017A01CA01B9012FEF3FEF9C
S11345A040E050E00E94F82B21153105A9F581E087
S11345B08C83CD82DE8284E6C816D10418F41C8272
S11345C01D821E82DF91CF91FF90EF90DF90CF90FC
S11345D0BF90AF909F908F900895643009F44AC0C3
S11345E0663009F0AECF80E09BE088839983209108
S11345F0A00681E090E03FEF340F032E01C0880F46
S11346000A94EAF7282B2093A0064A83423009F043
S11346109CCF80E28B83A3CF2130310509F463C0A2
S113462024303105D0F02830310508F069C084E029
S11346308C8360E079E08DE390E0A50194010E9411
S1134640F82B69017A01B5CF413009F088CF80E1B8
S11346508B8385CF80E48B8382CF83E08C8360E07F
S113466072E18AE790E0A50194010E94F82B6901A8
S11346707A019FCF80E09AE0888399832091800615
S113468081E090E03FEF340F032E01C0880F0A94BD
S1134690EAF7282B2093800654CF80E098E08883A3
S11346A099832091400681E090E03FEF340F032E80
S11346B001C0880F0A94EAF7282B2093400641CFC3
S11346C080E099E0888399832091600681E090E0FE
S11346D03FEF340F032E01C0880F0A94EAF7282B0A
S11346E0209360062ECF82E08C8360E074E284EF36
S11346F090E0A50194010E94F82B69017A0159CF39
S11347002034310588F02F3F310509F0D0F486E0DC
S11347108C8368E478EE81E090E0A50194010E9426
S1134720F82B69017A0145CF85E08C8360E271EA58
S113473087E090E0A50194010E94F82B69017A01B9
S113474038CF87E08C8362E17AE780E090E0A501CE
S113475094010E94F82B69017A012BCF0F931F93C8
S1134760CF93DF93EC010D811E819801A62FB0E059
S11347700E94422C24E630E040E050E00E94F82BF6
S11347808A81E881F981E6FF1CC08130A1F1823081
S1134790C9F1C80186A397A38B81E881F98191812E
S11347A0E6FF24C08073892B8183E881F9818081AD
S11347B0807F9C81892B8083DF91CF911F910F9102
S11347C008958230F9F0A8F0833019F1843009F7A4
S11347D026AF37AF8D819E81E881F98186A397A3A7
S11347E08B81E881F9819181E6FDDCCF982B91835F
S11347F0DCCF813071F620AF31AF8D819E81E881AD
S1134800F981C8CF22AF33AF8D819E81E881F981D0
S1134810C1CF24AF35AF8D819E81E881F981BACFB4
S1134820CF93DF93CDB7DEB72797CDBFDEBF87E049
S1134830E4E8F0E2DE01119601900D928A95E1F729
S113484060E185E00E9439198BE195E20E944513ED
S11348500E94EA18BE016F5F7F4F80EA9AE072DC23
S113486081110CC0E2E2F2E0849190E00E945713BF
S11348702796CDBFDEBFDF91CF910895E6E2F2E047
S1134880849190E00E9457132796CDBFDEBFDF913D
S1134890CF9108959091880694FF04C0682F80EA10
S11348A09AE0F7CD92E09093850648EE53E090911C
S11348B0880694FDF3CF20E030E02F5F3F4F253D85
S11348C094E13907D1F7415051094115510579F760
S11348D008951F93CF93DF932091880624FF39C056
S11348E0EC0112E0699180918806662351F084FFFF
S11348F01BC080EA9AE0CDDD699180918806611140
S1134900F6CF84FF41C06DE080EA9AE0C2DD809179
S1134910880684FF52C06AE080EA9AE0BADD80E04B
S1134920DF91CF911F9108951093850628EE33E00F
S11349308091880684FDDDCF80E090E00196853D7E
S113494044E19407D9F7215031092115310581F744
S1134950C9CF22E02093850648EE53E020918806D3
S113496024FDBECF20E030E02F5F3F4F253D64E1C2
S11349703607D1F7415051094115510579F780E0C7
S1134980DF91CF911F91089582E08093850628EEF0
S113499033E08091880684FDB6CF80E090E00196F4
S11349A0853D64E19607D9F7215031092115310578
S11349B081F78091880684FDAECF82E080938506DE
S11349C028EE33E08091880684FDA5CF80E090E056
S11349D00196853D44E19407D9F721503109211509
S11349E0310581F780E0DF91CF911F910895CF9336
S11349F0DF9380E28093850685E593E2A8E0B0E04A
S1134A000197A109B1090097A105B105C9F781E092
S1134A1080938606C0EDD7E080E090E00196853D66
S1134A2024E19207D9F70E94EA1821972097A1F769
S1134A30DF91CF9108958AE295E20E945713809105
S1134A40880684FF0AC080E395E243DF81E0809317
S1134A50850680E280938606089582E08093850629
S1134A6020ED37E08091880684FDEDCF80E090E072
S1134A700196853D44E19407D9F721503109211568
S1134A80310581F7E0CF86E395E20E945713A8959C
S1134A908DE395E21EDF8091880684FF3CC089E4A3
S1134AA095E217DFA8958091880684FF1EC082E5F1
S1134AB095E20FDFA8958091880684FD089582E031
S1134AC08093850620E737E18091880684FDF6CF40
S1134AD080E090E00196853D44E19407D9F72150A8
S1134AE031092115310581F7089582E08093850607
S1134AF028EE33E08091880684FDD9CF80E090E0F1
S1134B000196853D44E19407D9F7215031092115D7
S1134B10310581F7CCCF82E08093850620ED37E024
S1134B208091880684FDBBCF80E090E00196853DAE
S1134B3044E19407D9F7215031092115310581F752
S1134B40AECFCF93DF9381E08093A60680E280937B
S1134B50850685E593E2A8E0B0E00197A109B109D3
S1134B600097A105B105C9F781E080938606C0EDE1
S1134B70D7E080E090E00196853D24E19207D9F7E3
S1134B800E94EA1821972097A1F780E09AE6A8E10D
S1134B90B0E00197A109B1090097A105B105C9F7D2
S1134BA081E08093A50685E593E2A8E0B0E0019753
S1134BB0A109B1090097A105B105C9F7DF91CF910A
S1134BC008958091880684FF43C061EA80EA9AE0F0
S1134BD060DC8091880684FF54C062E080EA9AE039
S1134BE058DC8091880684FF65C061E080EA9AE021
S1134BF050DC8091880684FF76C060E080EA9AE009
S1134C0048DC80E090E001968A3228E69207D9F7E2
S1134C108091880684FFBFC061EA80EA9AE039DCAB
S1134C208091880684FFA1C062E080EA9AE031DCCA
S1134C308091880684FF83C060E080EA9AE029DCE2
S1134C408091880684FF65C060E080EA9AE021CC08
S1134C5082E08093850628EE33E08091880684FD07
S1134C60B4CF80E090E00196853D44E19407D9F704
S1134C70215031092115310581F78091880684FD81
S1134C80ACCF82E08093850628EE33E080918806DD
S1134C9084FDA3CF80E090E00196853D44E1940734
S1134CA0D9F7215031092115310581F78091880602
S1134CB084FD9BCF82E08093850628EE33E08091CB
S1134CC0880684FD92CF80E090E00196853D44E122
S1134CD09407D9F7215031092115310581F78091C5
S1134CE0880684FD8ACF82E08093850628EE33E02F
S1134CF08091880684FD81CF80E090E00196853D17
S1134D0044E19407D9F7215031092115310581F780
S1134D1078CF82E08093850628EE33E08091880680
S1134D2084FD92CF80E090E00196853D44E19407B4
S1134D30D9F7215031092115310581F7089582E011
S1134D408093850628EE33E08091880684FD74CF35
S1134D5080E090E00196853D44E19407D9F7215025
S1134D6031092115310581F76BCF82E080938506E7
S1134D7028EE33E08091880684FD56CF80E090E0F1
S1134D800196853D44E19407D9F721503109211555
S1134D90310581F74DCF82E08093850628EE33E01C
S1134DA08091880684FD38CF80E090E00196853DAF
S1134DB044E19407D9F7215031092115310581F7D0
S1134DC02FCFCF93DF938AE295E20E94571380910D
S1134DD0880684FF3AC080E395E27BDD91E09093FE
S1134DE0850680E2809386069093A60680938506C6
S1134DF085E593E2A8E0B0E00197A109B109009725
S1134E00A105B105C9F781E080938606C0EDD7E01E
S1134E1080E090E00196853D24E19207D9F70E9455
S1134E20EA1821972097A1F78AEA9BE7ACE1B0E062
S1134E300197A109B1090097A105B105C9F781E05E
S1134E408093A506DF91CF91089582E08093850633
S1134E5020ED37E08091880684FDBDCF80E090E0AE
S1134E600196853D44E19407D9F721503109211574
S1134E70310581F7B0CFE0E8F6E0808586FB88272E
S1134E8080F991E0892708958091880684FF03C002
S1134E9081E695E21ECD82E08093850628EE33E01C
S1134EA08091880684FDF4CF80E090E00196853DF2
S1134EB044E19407D9F7215031092115310581F7CF
S1134EC081E695E206CD87E695E203CD81E895E299
S1134ED000CD8EE895E2FDCC8BE995E2FACC61E059
S1134EE089E790E00E94301AFFCF0E9437170E9492
S1134EF09D168091E1279091E2270196883E23E058
S1134F00920728F48093E1279093E2270895109262
S1134F10E1271092E2270C94EF1880911628823032
S1134F2009F461C0B0F4882309F44AC0813041F522
S1134F3087EF94E08093E7279093E8278DEF94E040
S1134F408093E5279093E6271092E3271092E427B5
S1134F500895843011F1873099F484E49CE08093BF
S1134F60E7279093E82781E79CE08093E5279093D7
S1134F70E62785EA9DE08093E3279093E42708954C
S1134F801092E7271092E8271092E5271092E6275F
S1134F901092E3271092E427089587E390E1809329
S1134FA0E7279093E82787EB91E18093E527909397
S1134FB0E62788EB91E18093E3279093E427089513
S1134FC08FE19EE08093E7279093E8278DE89FE0A8
S1134FD08093E5279093E6278EE89FE08093E3276C
S1134FE09093E427089580E59AE08093E7279093CF
S1134FF0E8278DE79AE08093E5279093E6278AECEB
S11350009BE08093E3279093E42708959FB7F89457
S113501084E08093AA062FB7F8948093B000E0EA66
S1135020F6E08089887F808B80898160808B2FBFA8
S113503082E08093A9069FBF0895CF93DF93CDB7F5
S1135040DEB7C155D109CDBFDEBF109215280E942D
S113505018190E948A0180E090E001968A3228E6BD
S11350609207D9F780E00E94931541E060E080E068
S11350700E94BC1588E00E94D0048111FBCF0E94DD
S113508039010E94860183E00E9457016C010E944D
S1135090C102B82EACDCC4DB0E94E51885E797E2B8
S11350A00E9402170E94D5120E943D1703E410E2E9
S11350B0F801319780810E945701D80119968D9388
S11350C09C931A9711968D939C93129715968D9392
S11350D09C9316978C910E945701F80183879487BB
S11350E08383948387839087025F1F4FF0E20F3599
S11350F01F07F1F610920D2810920E2810920F2817
S1135100109210281092112881E0809312280E9496
S113511033177CDF0E945A0387E08093A2007894BF
S11351208091EE27881F8827881F9091EF279F730F
S1135130990F982B81E009F480E00E94591580931F
S113514014280E94D609682E0E943F09E6DE809149
S1135150EF2782958695869583709091F027990F15
S1135160990F982B81E009F080E00E94931588EA5A
S113517095E20E94AD1781EC95E20E94AD1788EA92
S113518095E20E9457138091162890E08351984D20
S11351907ADCA895E091E727F091E827309709F4A5
S11351A0C0C286E198E2099543E250E060E070E015
S11351B0CE0101960E94B4160E94EA1846E050E01F
S11351C060E070E0CE01875B9F4F0E94B4160E949E
S11351D0EA1846E050E060E070E0CE018F5B9F4F3C
S11351E00E94B4160E94EA1848EE53E060E070E0B2
S11351F0CE0189960E94B4160E94EA1840E65AEE3F
S113520060E070E0CE0181960E94B4160E94EA1814
S113521048EE53E060E070E0CE0149960E94B41677
S11352200E94EA1840EE53E964E070E0CE01419632
S11352300E94B4160E94EA18CE01C9960E94FC1678
S113524085E096E20E945713712C812C912C2BE25D
S1135250222E22E0322EAA24A39432E0432ECE0141
S113526001960E94CD16882309F46AC00E94EA18A8
S113527080E00E940519CE0181960E94CD1681110D
S11352803CC1CE0149960E94CD168111EEC0809199
S11352901628823009F4FFC0873009F407C1CE0113
S11352A0875B9F4F0E94CD168111AAC0CE018F5BF0
S11352B09F4F0E94CD16811172C0CE01C9960E94E3
S11352C0CD16811106C0CE0141960E94CD168823C9
S11352D091F0CE01C9960E94FC1640EE53E964E0B9
S11352E070E0CE0141960E94B4160E94C102B82E0D
S11352F0882309F495C1CE01C1960E94CD1681116F
S1135300AAC188E00E94D004182F89E00E94D0042A
S1135310882371F0112361F085E598E5A4E1B0E0FC
S11353200197A109B1090097A105B105C9F749DCA5
S11353300E941208CE0101960E94CD16811196CFCB
S1135340CE01875B9F4F0E94CD1681118FCFCE0176
S11353508F5B9F4F0E94CD16811188CFCE0181961D
S11353600E94CD16811182CFCE0149960E94CD169E
S113537081117CCFF101849190914800917F892B18
S1135380809348008091480081608093480078941D
S11353908895809148008E7F8093480067CF46E0CF
S11353A050E060E070E0CE018F5B9F4F0E94B41626
S11353B003E410E2F12CF801319780810E94570137
S11353C0F8018187928780810E945701D8011B963A
S11353D08D939C931C97E091E327F091E4273097F9
S11353E039F019966D917C911A97AC018F2D09951E
S11353F0F394025F1F4FB2E0FB1609F45ECFDBCFDC
S113540046E050E060E070E0CE01875B9F4F0E9471
S1135410B41601E010E292E0E92E90E2F92E512C4C
S11354200EC0D8018C918F5F8C935394F4E0EF0EEF
S1135430F11C0C5F1F4F20E1521609F46EC0D70116
S11354408C91882341F0852D0E94D004882349F350
S1135450F8011082EACF852D0E94D0048823C1F37D
S1135460F80180818F5F8083E0CF48EE53E060E0F5
S113547070E0CE0149960E94B416809115288A25C1
S113548080931528A6016B2D0E94D60280911628C0
S1135490823009F001CFCE0101960E94CD16811110
S11354A014C180911628873009F0F9CECE010196F7
S11354B00E94CD16882309F4F2CE43E250E060E066
S11354C070E0CE0101960E94B416E091E527F091B8
S11354D0E62760E081E109958091F926882351F05F
S11354E040EE53E964E070E0CE0141960E94B416A8
S11354F01092F9260E94110ED2CE40E65AEE60E0D8
S113550070E0CE0181960E94B41683E00E94570198
S11355106C010E94C102B82EB4CE82E0E82E80E273
S1135520F82E01E010E220E036C0A0825524539406
S11355308091E5279091E627892B11F18091162817
S11355408230A9F540EE53E964E070E0CE01419663
S113555062962FAF62970E94B41662962FAD62973F
S1135560283009F4E3C0E091E527F091E627652DA2
S1135570822F62962FAF6297099562962FAD62973C
S1135580283009F4D5C02F5F0C5F1F4FB4E0EB0E39
S1135590F11C2031F9F0D8018C918430A0F31C92D5
S11355A0F7018081882309F21082512CC1CF40EE8B
S11355B053E964E070E0CE01419662962FAF6297A2
S11355C00E94B4168091162862962FAD6297873098
S11355D039F2B8CF711069C0911060C08091222057
S11355E0811150C0811014C080912620882309F4B1
S11355F05DCE2091E92730E0A4E6B0E043D1AB01D1
S1135600BC01CE01C1960E94B416862D0E94AE093B
S113561080912620882309F47EC08824839446CE72
S113562040E060E080E00E94BC158091EE27881F76
S11356308827881F9091EF279F73990F982B81E0FB
S113564009F480E00E941315CE01C1960E94CD1684
S1135650882309F456CECE01C1960E94FC1671DA55
S113566013DC40E061E080E00E94BC158BEA92EC20
S1135670A2EAB0E00197A109B1090097A105B1051B
S1135680C9F72DDC2091E92730E0A2E3B0E0FAD09D
S1135690AB01BC01CE01C9960E94B41680912220B0
S11356A0882399F1992493949DCFCE0109960E9461
S11356B0CD16882309F490CFE091E527F091E627F1
S11356C060E088E00995712C87CF43E250E060E008
S11356D070E0CE0101960E94B416E091E527F091A6
S11356E0E62760E081E109958091EA26882351F05C
S11356F040EE53E964E070E0CE0141960E94B41696
S11357001092EA260E94360CCCCECE01C9960E9495
S1135710FC16912C67CFCE01C1960E94FC16812CF9
S1135720C5CD87EE95E20E9457133ECD51101BCF95
S113573080912220813009F026CF4092222046E930
S113574050E060E070E0CE01099662962FAF629758
S11357500E94B4167724739462962FAD629713CF88
S11357601F920F920FB60F9211240BB60F922F9324
S11357703F934F935F936F937F938F939F93AF93D5
S1135780BF93EF93FF939FB7F8948091AC0680FF8B
S113579003C081E08093AC06809114288823A1F093
S11357A09FBFFF91EF91BF91AF919F918F917F9197
S11357B06F915F914F913F912F910F900BBE0F907E
S11357C00FBE0F901F9018958ADB97FB072E16F4D7
S11357D0009406D077FD08D06AD007FC05D03EF4CB
S11357E0909581959F4F0895709561957F4F089589
S11357F0A1E21A2EAA1BBB1BFD010DC0AA1FBB1FD1
S1135800EE1FFF1FA217B307E407F50720F0A21B42
S1135810B30BE40BF50B661F771F881F991F1A94AF
S113582069F760957095809590959B01AC01BD01D9
S1135830CF010895052E97FB16F400940FD057FD61
S113584005D0D6DF07FC02D046F408C05095409539
S1135850309521953F4F4F4F5F4F08959095809518
S1135860709561957F4F8F4F9F4F0895EE0FFF1FE7
S11358700590F491E02D099405D0332312F48A1B8A
S11358809B0B10C0A29FB001B39FC001A39F700DDA
S1135890811D1124911DB29F700D811D1124911D34
S11358A00895F0DFB7FF0895821B930B0895AA1B98
S11358B0BB1B51E107C0AA1FBB1FA617B70710F0F7
S11358C0A61BB70B881F991F5A95A9F78095909529
S11358D0BC01CD010895FC014150504030F00190CD
S11358E00616D1F73197CF0108958827992708958F
S11358F0FB01DC0102C001900D9241505040D8F7E9
S11359000895DC0101C06D9341505040E0F70895C3
S1135910FB01DC018D91019080190110D9F3990BE1
S11359200895BB274A3031F4992322F4BDE29095BF
S113593081959F4F01C0BB27FB015527AA27880FDC
S1135940991FAA1FA41710F0A41B83955051B9F7EF
S1135950A05DAA3308F0A95DA193009779F7B1116E
S1135960B1931192CB0100C0DC01FC01672F71914E
S11359707723E1F7329704C07C916D937083629131
S10F5980AE17BF07C8F30895F894FFCFDA
S113598C090000000D0000000B00000001000000E5
S113599C050000002C0000000400000007000000BB
S11359AC2A0000012D0000002F0000002E00000032
S11359BC020000000C0000001D0000001C00000090
S11359CC08080608000000000000000000000000A9
S11359DC0E0F00000000000000000000000000E1B9
S11359EC00000300000F000F00A1040000000000E1
S11359FC000000A104000000000000000000C2012F
S1135A0C0003000000C201000300002D3E00E80367
S1135A1CE803442052204E4F004F4B0042433A4679
S1135A2C5500425500524700414700574700534721
S1135A3C0052430041430057430053430052530068
S1135A4C424C005553423A72637600436F6D6D615C
S1135A5C6E64206D6174636820004E6F20636F6DFB
S1135A6C6D616E64206D61746368696E672000A556
S1135A7C205C06A820FE05AB209006AE202707B1BB
S1135A8C20B507B4202D06B720DF06BA203207BD97
S1135A9C205F07C0207107A2207F0742494F5300A3
S1135AAC4C6F6164696E6720636F6E6669677572AB
S1135ABC6174696F6E2000442052204420522044AB
S1135ACC205220442052200200000000000000005C
S1135ADC00000000000000000000000000000000B6
S1135AEC00000000000000000000000000000000A6
S1135AFC0000000000000000000000000000000096
S1135B0C0000000000000000000000000000000085
S1135B1C0000000000000000000000000000000075
S1135B2C0000000000000000000000000000000065
S1135B3C0000000000000000000000000000000055
S1135B4C0000000000000000000000000000000045
S1135B5C0000000000000000000000000000000035
S1135B6C000024FADC0524FADC052C012C010000CD
S1135B7C000000000000000024FADC0524FADC0517
S1135B8C2C012C01320101010090400001000000A5
S1135B9C08001A0000000000001D001B000000009B
S1135BAC00001400040000000000000600070000C0
S1135BBC0000000015000B00000000000011000D97
S1135BCC00000000000017001C0000000000000989
S1135BDC00180000000000000A0012000000000081
S1135BEC0019000F00000000000013000E0000005C
S1135BFC00000010000C00000000000013000E0058
S1135C0C000000000010000C000000000000000068
S1135C1C0000000000000000000000000000000074
S1135C2C0000000000000000000000000000000064
S1135C3C0000000000000000000000000000000054
S1135C4C000000000000000000070000000000003D
S1135C5C0000000000000000000000000000000034
S1135C6C0000000000000000000000000000000024
S1135C7C0000000000000000000000000000000014
S1135C8C0000000000000000000000000000000004
S1135C9C00000000000000000000000000000000F4
S1135CAC00000000000000000000000000000000E4
S1135CBC00000000000000000000000000000000D4
S1135CCC00000000000000000000000000000000C4
S1135CDC00000000000000000000000000000000B4
