:020000040000FA
:20000000F4C0000011C1000041C300000DC100000BC1000009C1000007C1000005C1000064
:2000200003C1000001C10000FFC00000FDC00000FBC00000F9C000000C9425230C9452234D
:200040000C947F230C94AC230C94D9230C9406240C9433240C9460240C948D240C94BA249F
:20006000E3C000000C9402200C943D20DDC00000DBC00000D9C00000D7C00000D5C0000021
:20008000D3C00000D1C00000CFC00000CDC00000CBC00000C9C00000C7C00000C5C0000000
:2000A000C3C00000C1C00000BFC00000BDC00000BBC00000B9C00000B7C000000C94F5251B
:2000C0000C9422260C944F260C947C260C94A9260C94D626A9C00000A7C00000A5C00000A1
:2000E000A3C00000A1C000009FC000009DC000009BC0000099C0000097C0000095C0000020
:2001000093C0000091C000008FC000008DC000008BC0000089C0000087C0000085C000007F
:2001200083C0000081C000007FC000007DC000007BC000000C94E7240C9414250C944125FA
:200140000C946E250C949B250C94C8256DC000006BC0000069C0000067C0000065C00000B2
:2001600063C0000061C000005FC000005DC000005BC0000059C0000057C0000055C000009F
:2001800053C0000051C000004FC000004DC000004BC0000049C0000047C0000045C00000FF
:2001A0000C941C3641C000003FC000003DC000000C9403270C9430270C945D270C948A271A
:2001C0000C94B7270C94E4274445425547205541525420494E49543A200042414400474F28
:2001E0004F4400000E060C04000011241FBECFEFDFE2DEBFCDBF16E2A0E0B0E2EAE3FEE6D3
:2002000000E00BBF02C007900D92A431B107D9F728E2A4E1B6E201C01D92AF3CB207E1F7CC
:200220000E9402310C941B37EBCE64E176E280E092E00E94FD214AE156E261E080E092E099
:200240000E943722E4E1F6E2908181818F7C80628183917E9083128284E08383BF0180E0C2
:2002600092E00C94B421803128F591E090931A26880F880F880F80931B264AE156E261E038
:2002800080E092E00E941D229FB7F894809100028460809300029FBF80910602982F91707E
:2002A00080FFFACF909306022091240230912502C901089510921A268051880F880F880F2D
:2002C00080931B26DACF80E092E00C948E218F929F92BF92CF92DF92EF92FF920F931F9325
:2002E000CF93DF9380E4882E86E0982E12E0D40115961C93159711961C931197E0EBF0E07E
:20030000108300E250960C935097CC24C3941296CC921297C08278E150967C93C0E0D6E020
:2003200098E0D92EDA82D082188A20E236E0D90112961C931297108350967C9350971296E5
:200340000C931297008350967C9350971296DC921297D08250967C931A831083788B0A8330
:200360000083788B40EA56E060E1DA0112966C931297608350967C9350976A836083788B99
:2003800080E8E82EEA82E082788B94E0F92E1296FC921297F08250966C93509712960C930F
:2003A0001297008350967C9350971296EC921297E08250967C93509780E4B82E1296BC92E8
:2003C0001297B08250967C93FA82F082788BD90112966C931297608350967C9380E696E07E
:2003E000DC0112960C931297008350967C93509712966C931297608350967C93BA82B0823B
:20040000188AE901CA82C082188ABA82B082188AEA82E082188AA0E8B6E01596CC921597CD
:200420001196CC921197C08250961C925097EA01CD82C982C082188A16966C9316971296E9
:200440006C931297608350961C92509711961C931197108350961C9250971596DC921597C5
:200460001196DC921197D08250961C9250971596FC9215971296FC921297F08250961C9228
:20048000509716960C93169711960C931197008350961C9250971D8319831083188AEC0133
:2004A000CD82C982C082188A1D8319831083188AE901FA82F082788BE401DD82D982D08281
:2004C000188AFD82FA82F082188A1596EC9215971196EC921197E08250961C92DC0115964B
:2004E000DC9215971196DC921197D08250961C9250971296FC921297F08250961C9250978C
:200500001296EC921297E08250966C936A836083688B0A830083688BBA82B082688BEA8232
:20052000E082688BDF91CF911F910F91FF90EF90DF90CF90BF909F908F90089581E08093BC
:20054000B00080E18093500680E090E001968A369105E1F78091480691E09093B000109247
:20056000500681700895EF92FF920F931F93CF93DF931F92CDB7DEB7082F7A0169830E9453
:20058000A12F182F6981611142C089E3E8168CE0F80608F047C083E0F82E40E060E081E0C9
:2005A0000E94C81D4AEA56E460E170E04150510961097109D9F740E060E080E00E94C81DCF
:2005C0004AEA56E460E170E04150510961097109D9F7FA9411F78091EA27881F8827881FC8
:2005E0009091EB279F73990F982B81E069F10E94221D40E060E080E0112371F00F90DF914B
:20060000CF911F910F91FF90EF900C94C81D41E061E081E01111F2CF0111F0CF40E060E0C0
:2006200080E0ECCFE3E4EE16ECE0FE0648F0FAE8EF16FCE0FF0678F440E061E081E0EACF1D
:2006400040E060E081E0E6CF80E00E94221D40E060E080E0D1CF41E060E080E0DBCF9FB7C2
:20066000F89481E080934A062FB7F8948093B000E0E4F6E08089887F808B80898160808B4B
:200680002FBF82E0809349069FBF08951F920F920FB60F9211240BB60F922F933F934F93E8
:2006A0005F936F937F938F939F93AF93BF93CF93EF93FF93CFB7F89480914C0680FF03C01F
:2006C00081E080934C0641E061E081E00E94C81D809148008E708430A9F0CFBFFF91EF91C8
:2006E000CF91BF91AF919F918F917F916F915F914F913F912F910F900BBE0F900FBE0F90D7
:200700001F901895809148008E7F8093480061E089E790E00E945122FFCFCF93DF93CDB760
:20072000DEB72897CDBFDEBF40EF59E462E070E08DEE97E20E94CC1E0E94042188E02CD192
:20074000182F89E029D18111EFC08DEE97E20E94E51E8111B1C080E01FD1882309F470C0EA
:2007600011E0809142207FDD8D839E83809143207ADD8F8398879E012F5F3F4FAE014B5F78
:200780005F4F6EE870E284E490E20E947C1B6F8178858D819E810E947D2060E08BE890E272
:2007A0000E94911F6B817C8189819A810E947D2085E295E20E94C51F2B813C8137FD98C041
:2007C000232B09F4A0C0FF24F39400E0809150204ADD8D839E838091512045DD8F83988736
:2007E0009E012F5F3F4FAE014B5F5F4F6EE870E282E590E20E947C1B6F8178858D819E8163
:200800000E947D2060E08BE890E20E94911F6B817C8189819A810E947D2085E295E20E9455
:20082000C51F2B813C8137FD60C0232B09F464C0FF24F3944F2D612F802F0E94C81D7CCF71
:2008400081E0AAD081118CCF82E0A6D0811188CF83E0A2D0811184CF84E09ED0811180CFA2
:2008600085E09AD081117CCF86E096D0811178CF87E092D0811174CF88E08ED0811170CFF2
:2008800089E08AD081116CCF8BE086D0811168CF8AE082D0811164CF8DE07ED0811160CF41
:2008A0008CE07AD081115CCF8EE076D0811158CF8FE072D0182F55CF8DEE97E20E94141F73
:2008C00040E060E080E00E94C81D8091EA27881F8827881F9091EB279F73990F982B81E0A1
:2008E00009F480E00E94221D36CF11E001E0A2CFF12C11E001E06ACF29813A8112161306A4
:2009000054F401E097CF29813A81F12C121613063CF401E05BCF232B09F48CCF11E08ACF5A
:20092000232B99F400E052CF112309F40ECF8AEA90EBA8E2B0E00197A109B109E1F761E0AF
:2009400089E790E00E945122FFCF11E000E03ECF80E00E949F1DC3E0D0E040E060E081E024
:200960000E94C81D8AEA96E4A0E1B0E00197A109B109E1F740E060E080E00E94C81D8AEA62
:2009800096E4A0E1B0E00197A109B109E1F7219721F70E941B2DC1DE94E0899FF0011124DD
:2009A000E050F04E8081A82FA695A695A69590E2A99FD0011124BA5F18962C91382F3770EE
:2009C00081E090E0032E01C0880F0A94EAF7282381E09381211103C0911103C008959111E5
:2009E000FDCF80E0089580931D2690931E260C94DC2FCF93E0911D26F0911E2690E09C01DE
:200A0000220F331F220F331F220F331F280F391FE20FF31F613009F445C0C481C11102C04F
:200A2000CF9108958C2F0E944A1B81EA0E94E12C81E00E94E12C80E00E94E12C80E00E94BC
:200A4000E12C8C2F0E94E12C80E00E94E12C80E00E94E12C80E00E94E12C80E00E94E12CE3
:200A600080E00E94E12C81EA0E94E12C81E00E94E12C80E00E94E12C80E00E94E12C80E0BF
:200A80000E94E12C80E00E94E12C80E00E94E12C80E00E94E12C80E00E94E12C80E0CF91AB
:200AA0000C94E12CC681BACFFC0160837183458312821482828183830895FC019FB7F8946E
:200AC000248185812817B0F48281A081B181A80FB11D6C938F5F828384818F5F848322811E
:200AE0008581281720F0128281E09FBF089581E09FBF089580E09FBF0895FC019FB7F8941B
:200B000084818823C1F08381A081B181A80FB11D2C91DB012C938F5F83838481815084836F
:200B200023818581281720F0138281E09FBF089581E09FBF089580E09FBF08951F93CF9300
:200B4000DF93FC011FB7F89433818481841728F5D481DD2309F45DC080819181DC01A30F42
:200B6000B11D2C91222309F44EC02581C0E006C0DC01A30FB11D5C91552389F03F5F32176C
:200B800008F030E0CF5FCD13F3CF80E01FBF811112C0DF91CF911F910895D42FDACF2C2FB7
:200BA00030E02F5F3F4F50E081E0241735076CF71FBF882371F35C2F5F5F59F3DB0190E0D0
:200BC00019C02381C081D181C20FD11D48814C932F5F2383248121502483438125814217EA
:200BE00080F0138221E03FBF222399F29F5F1196591779F23FB7F89424812111E2CF20E097
:200C0000F2CF21E0F0CF242F30E081E0223031050CF480E0C0E0BACF81E08093A50680E0FF
:200C200090E00196853D24E19207D9F781E08093A60680E090E00196853D24E19207D9F7C6
:200C400081E08093A50680E090E00196853D24E19207D9F781E08093A60680E090E0019657
:200C6000853D24E19207D9F781E08093A50680E090E00196853D24E19207D9F782E990E2B1
:200C80000C94FE2C61E088E990E20E94911F80E090E00196853520ED9207D9F70C94991331
:200CA0008FE196E287D361E088E990E20E94911F109227260895CF938FE196E274D390913E
:200CC0001F26892F8F7092959F70C82F8A300CF0A6C0C05D892F9A300CF0A6C0805D0E944F
:200CE000801F8C2F0E94801F90912026892F8F7092959F70C82F8A300CF0B2C0C05D892F11
:200D00009A300CF0ABC0805D0E94801F8C2F0E94801F90912126892F8F7092959F70C82F3C
:200D20008A300CF099C0C05D892F9A300CF092C0805D0E94801F8C2F0E94801F9091222634
:200D4000892F8F7092959F70C82F8A300CF080C0C05D892F9A300CF079C0805D0E94801FC7
:200D60008C2F0E94801F90912326892F8F7092959F70C82F8A300CF067C0C05D892F9A30AD
:200D80000CF060C0805D0E94801F8C2F0E94801F90912426892F8F7092959F70C82F8A3014
:200DA0000CF04EC0C05D892F9A300CF047C0805D0E94801F8C2F0E94801F90912526892F49
:200DC0008F7092959F70C82F8A30B4F5C05D892F9A3084F5805D0E94801F8C2F0E94801F52
:200DE00090912626892F8F7092959F70C82F8A30FCF0C95A892F9A30CCF0895A0E94801F77
:200E00008C2F0E94801F80E00E94801F61E088E990E20E94911F10922726CF910895C95AB0
:200E2000892F9A300CF45ACF895A59CF805DE6CFC05DE0CF895ACFCFC95AC9CF895AB8CFF8
:200E4000C95AB1CF895A9FCFC95A98CF895A86CFC95A7FCF895A6DCFC95A66CF895A54CFEE
:200E6000C95A4DCF1F93CF93DF93FC0180818823A9F19181992391F1228121112FC0806274
:200E8000906281369CF58053282F2295207F892F91369CF18755820F68E276E292D2C8E26F
:200EA000D6E20EC0195A892F9A30B4F0895A0E94801F812F0E94801F86E2C53ED80701F1C2
:200EC0009991892F8F7092959F70182F8A3054F7105D892F9A3054F7805DE9CF61E08BE92B
:200EE00090E2DF91CF911F910C94911F8755282F2295207F892F91366CF68053820FCCCF47
:200F000080E00E94801F61E088E990E20E94911F1092E526DF91CF911F910895FC018081F2
:200F20008823C1F091819923A9F02281211112C08062906281369CF480538295807F91367C
:200F40009CF09755980F9093272661E088E990E20C94911F61E08BE990E20C94911F87553B
:200F60008295807F91366CF79053980F9093272661E088E990E20C94911FFC0190819923F9
:200F8000E1F081818823C9F02281211116C0906280629136BCF490539295907F8136BCF0A8
:200FA0008755890F68E276E215D261E088E990E20E94911F1092E526089561E08BE990E24D
:200FC0000C94911F97559295907F81364CF78053890FE8CFFC0180818823C1F0918199235B
:200FE000A9F02281211112C08062906281369CF480538295807F91369CF09755980F9093A4
:20100000E52661E088E990E20C94911F61E08BE990E20C94911F87558295807F91366CF7BE
:201020009053980F9093E52661E088E990E20C94911FCF93DF93C82FD92FFE010190002001
:20104000E9F73197EC1BFD0B4E2FE0FD35C0EE23D1F120912726283078F5DC01119630E060
:201060000FC097559295907F8136DCF08755890F80832F5F3E5F3417D8F412962830C1F092
:20108000E22FF0E0E15EF94DED012197988190628C91806291362CF790539295907F813680
:2010A0002CF78053890F80832F5F3E5F341728F320932726431739F061E08BE990E2DF91F4
:2010C000CF910C94911F61E088E990E2DF91CF910C94911FFC0101900020E9F73197E81BC3
:2010E000F90B6E2FE0FD34C0EE23B9F14091E5264D3B70F550E00EC037553295307F2136A3
:20110000E4F02755230F20834F5F5E5F5617E0F44D3BD1F0E42FF0E0E85DF94DDC01A50FB6
:20112000B11D3C91306211962C912062313624F730533295307F213624F72053230F208367
:201140004F5F5E5F561720F34093E526651729F061E08BE990E20C94911F61E088E990E296
:201160000C94911FEF92FF920F931F93CF93DF93CDB7DEB7C354D109CDBFDEBF60E4CE019F
:2011800001960E94FC1F81110BC0CD5BDF4FCDBFDEBFDF91CF911F910F91FF90EF90089554
:2011A000898122968FAF22979A8123969FAF239724961FAE2497992787FD909581549F4D2E
:2011C0000E94611BBE016F5B7F4F81EA90E20E94E336009709F473C0BE016F5B7F4F84EA76
:2011E00090E20E94E336009709F484C0BE016F5B7F4F87EA90E20E94E336009709F481C020
:20120000BE016F5B7F4F8AEA90E20E94E336009709F47EC0BE016F5B7F4F8DEA90E20E9422
:20122000E336009709F47BC0BE016F5B7F4F80EB90E20E94E336009709F478C0BE016F5B82
:201240007F4F83EB90E20E94E336009709F475C0BE016F5B7F4F86EB90E20E94E3360097D0
:2012600009F472C0BE016F5B7F4F89EB90E20E94E336009709F46FC0BE016F5B7F4F8CEBB6
:2012800090E20E94E336009709F46CC0BE016F5B7F4F8EE990E20E94E336009709F469C0A9
:2012A00086ED90E20E944F1BCE018F5B9F4F0E94611B61E08BE990E20E94911F66CFA1EA3F
:2012C000EA2EA0E2FA2E00E010E087EC90E20E944F1BC7010E94611BF801EE0FFF1FEE0F94
:2012E000FF1FE551FF4D0280F381E02DCE01039609954BCFF4EAEF2EF0E2FF2E01E010E060
:20130000E4CFE7EAEE2EE0E2FE2E02E010E0DDCF7AEAE72E70E2F72E03E010E0D6CF6DEA02
:20132000E62E60E2F62E04E010E0CFCF50EBE52E50E2F52E05E010E0C8CF43EBE42E40E250
:20134000F42E06E010E0C1CF36EBE32E30E2F32E07E010E0BACF29EBE22E20E2F22E08E012
:2013600010E0B3CF9CEBE92E90E2F92E09E010E0ACCFBEE9EB2EB0E2FB2E0AE010E0A5CFA7
:2013800061E088E990E20C94911FFADF80E090E00196853520ED9207D9F761E089E790E048
:2013A0000E945122FFCF48E050E0BC0180E090E00C94572248E050E0BC0180E090E00C94C7
:2013C0006C2220EC829FC00111244DEB50E080960C94572220EC829FC00111244DEB50E03A
:2013E00080960C946C22CF93C82F8A3009F464C048E050E065EE77E280E090E00E94572286
:201400008091EA2784FF40C04DEB50E063E471E280E290E00E946C224DEB50E068E072E21F
:2014200080EE90E00E946C224DEB50E062E873E280EA91E00E946C224DEB50E06FE374E27C
:2014400080E692E00E946C224DEB50E065EC72E280E293E00E946C2288E0E0E0F2E2A5EEE3
:20146000B7E201900D928A95E1F78091EA278F7E8093EA2748E050E065EE77E280E090E085
:201480000E946C220E94392F8CE191E20E944F1B8C2F805D0E944A1B85E295E20E944F1B9D
:2014A00020ECC29FC00111244DEB50E062E178E28096CF910C94572287E191E20E94611B3C
:2014C00047DA96CF853089F140F0883049F188F0893051F08A30F9F00895823009F190F057
:2014E000833059F08430C1F741E060E081E00C94C81D863059F0873079F740E061E081E055
:201500000C94C81D882389F0813031F740E060E081E00C94C81D40E060E080E00C94C81DBE
:2015200040E061E080E00C94C81D41E060E080E00C94C81DCF9389E02FDA882331F0CAE0D5
:201540008C2FC0DF8C2FCF91089584E025DA882331F0C0E08C2FB6DF8C2FCF91089585E03D
:201560001BDA882311F0C1E0EBCF86E015DA882311F0C2E0E5CF87E00FDA882311F0C3E079
:20158000DFCF8AE009DA882311F0C4E0D9CF81E003DA882311F0C5E0D3CF83E0FDD9882343
:2015A00011F0C6E0CDCF82E0F7D9882311F0C8E0C7CFF2D9882311F0C7E0C2CF8BE0ECD9ED
:2015C000882311F0C9E0BCCFC091EA27CF70B8CFCF93DF93CDB7DEB72A97CDBFDEBF809319
:2015E000E7269093E8268AE0E9E6F0E2DE01119601900D928A95E1F78AE0FE013196A5EF31
:20160000B7E201900D928A95E1F78AE0E5EFF7E2AFEFB7E201900D928A95E1F72A96CDBF49
:20162000DEBFDF91CF910C941830CF92DF92EF92FF920F931F93613009F4B2C0611124C0C7
:2016400041E050E060E070E0082E04C0440F551F661F771F0A94D2F74095509560957095B2
:201660000091E9261091EA262091EB263091EC2604231523262337230093E9261093EA262D
:201680002093EB263093EC26813139F01F910F91FF90EF90DF90CF9008958091E9269091CC
:2016A000EA26A091EB26B091EC260091ED261091EE262091EF263091F02684FD92C00E7F2F
:2016C00085FF92C0026086FF92C0086087FF92C0006193FF92C0006492FF92C00068009334
:2016E000ED261093EE262093EF263093F0264091F1265091F2266091F3267091F42695FFE5
:20170000A1C0416094FF8CC0426091FF87C0446090FF82C0486096FF7DC04062C12C20E8E9
:20172000D22EEE24EA94FE2CC822D922EA22FB22CD28CE28CF2809F47BC040644093F12639
:201740005093F2266093F3267093F42680FF6AC01092402080E08093FC270093FD2740939A
:20176000FE2790910628981305C080910728081709F472C08091FC279091FD27A091FE2728
:201780008093062890930728A093082881E08093E6261F910F91FF90EF90DF90CF9008950A
:2017A00001E010E020E030E0082E04C0000F111F221F331F0A94D2F74091E9265091EA2644
:2017C0006091EB267091EC26402B512B622B732B4093E9265093EA266093EB267093EC26F4
:2017E00053CF016085FD6ECF0D7F86FD6ECF077F87FD6ECF0F7E93FD6ECF0F7B92FD6ECF64
:201800000F770093ED261093EE262093EF263093F0266DCF4F7D82CF477F7DCF4B7F78CFC8
:201820004D7F73CF82FF10C086E08093402093CF4F7B4093F1265093F2266093F326709350
:20184000F42684CF4E7F5ECF81FD0BC083FD0DC088E0809340207FCF8091082848138ACF6D
:2018600015CF84E08093402076CF82E08093402072CF1F93CF93DF93CDB7DEB72697CDBF6A
:20188000DEBF182F9B01E82FF0E086E1189FD0011124AF56BF4F6091E7267091E8266A0F24
:2018A0007B1F29833A834B835C83EE0FFF1FED5CFE4D9E012B5F3F4FAE014F5F5F4F808106
:2018C00091810E94C41B8D8111110CC08093F8278E818093F9272696CDBFDEBFDF91CF9150
:2018E0001F9108958093FA279E819093FB27309102282091F8273217D1F08091F8279091ED
:20190000F927A091FA27B091FB278093022890930328A0930428B093052881E08093E62618
:201920002696CDBFDEBFDF91CF911F910895309103282091F9273213E0CF20910428821382
:20194000DCCF809105289813D8CFC5CFCF93DF93C5EFD7E288810E94E12C89810E94E12C06
:201960008A810E94E12C8B810E94E12C8C810E94E12C8D810E94E12C8E810E94E12C8F81AB
:201980000E94E12C88850E94E12C8985DF91CF910C94E12CCF93DF93CDB7DEB72A97CDBF17
:2019A000DEBF8093F6269093F7268AE0E3E7F0E2DE01119601900D928A95E1F78AE0FE01FF
:2019C0003196A5EFB7E201900D928A95E1F78AE0E5EFF7E2AFEFB7E201900D928A95E1F777
:2019E0002A96CDBFDEBFDF91CF910C9436300F931F93613009F48DC0611124C041E050E052
:201A000060E070E0082E04C0440F551F661F771F0A94D2F740955095609570950091F82690
:201A20001091F9262091FA263091FB2604231523262337230093F8261093F9262093FA26EB
:201A40003093FB26813119F01F910F9108958091F8269091F926A091FA26B091FB26209127
:201A6000FC2684FD77C02E7F322F85FF77C0326086FF77C0386087FF77C0306193FF77C0C6
:201A8000306492FF77C030683093FC262091FD2695FF77C0216094FF77C0226091FF77C03A
:201AA000246090FF77C0286096FF77C02062AC01BD0144275078452B462B472B09F477C0E1
:201AC00020642093FD2680FF77C01092412080E08093FC273093FD272093FE27909106284F
:201AE000981305C080910728381709F473C08091FC279091FD27A091FE2780930628909384
:201B00000728A093082881E08093F5261F910F91089501E010E020E030E0082E04C0000FCD
:201B2000111F221F331F0A94D2F74091F8265091F9266091FA267091FB26402B512B622BE5
:201B4000732B4093F8265093F9266093FA267093FB2678CF2160322F85FD89CF3D7F86FD7B
:201B600089CF377F87FD89CF3F7E93FD89CF3F7B92FD89CF3F773093FC262091FD2695FD34
:201B800089CF2E7F94FD89CF2D7F91FD89CF2B7F90FD89CF277F96FD89CF2F7DAC01BD018E
:201BA00044275078452B462B472B09F089CF2F7B2093FD2680FD89CF82FF04C086E080933B
:201BC000412086CF81FD0BC083FD0DC088E0809341207ECF80910828821389CF35CF84E0FA
:201BE0008093412075CF82E08093412071CF1F93CF93DF93CDB7DEB72697CDBFDEBF182F4B
:201C00009B01E82FF0E086E1189FD0011124AF56BF4F6091F6267091F7266A0F7B1F298320
:201C20003A834B835C83EE0FFF1FE95CFE4D9E012B5F3F4FAE014F5F5F4F808191810E9418
:201C4000C41B8D8111110CC08093F8278E818093F9272696CDBFDEBFDF91CF911F91089533
:201C60008093FA279E819093FB27309102282091F8273217D1F08091F8279091F927A09165
:201C8000FA27B091FB278093022890930328A0930428B093052881E08093F5262696CDBF8F
:201CA000DEBFDF91CF911F910895309103282091F9273213E0CF209104288213DCCF80918B
:201CC00005289813D8CFC5CFCF93DF93C5EFD7E288810E94E12C89810E94E12C8A810E9492
:201CE000E12C8B810E94E12C8C810E94E12C8D810E94E12C8E810E94E12C8F810E94E12C26
:201D000088850E94E12C8985DF91CF910C94E12C8093FE269093FF260C94DC2F7F928F9220
:201D20009F92AF92BF92CF92DF92EF92FF920F931F93CF93DF93CDB7DEB72697CDBFDEBFD5
:201D4000613009F4C5C36111E3C3C12CD12C7601C39404C0CC0CDD1CEE1CFF1C8A95D2F7FB
:201D6000C094D094E094F0948091042790910527A0910627B0910727C822D922EA22FB224F
:201D8000C0920427D0920527E0920627F0920727A090FE26B090FF26C0FE04C0F5018281B5
:201DA00083FF8FC3912C812C97018601369527951795079500FF19C0F501838583FD15C0CC
:201DC0001785112359F0492D50E0612F70E0CE0101960E94CD36892B09F406C4F5018685DD
:201DE000882AF5E0F91508F43BC3970186013695279517950795369527951795079500FF98
:201E000019C0F501848983FD15C0108D112359F0492D50E0612F70E0CE0101960E94CD36E6
:201E2000892B09F4FCC3F5018789882AF5E0F91508F416C3D701C601F3E0B695A79597959D
:201E40008795FA95D1F780FF19C0F501858D83FD15C011A1112359F0492D50E0612F70E0A5
:201E6000CE0101960E94CD36892B09F4C6C3F50180A1882AF6E09F1609F4F2C2D701C60179
:201E8000E4E0B695A79597958795EA95D1F780FF19C0F50186A183FD15C012A5112359F06A
:201EA000492D50E0612F70E0CE0101960E94CD36892B09F4BDC3F50181A5882AF6E09F1607
:201EC00009F4CEC2D701C60175E0B695A795979587957A95D1F780FF19C0F50187A583FDE1
:201EE00015C013A9112359F0492D50E0612F70E0CE0101960E94CD36892B09F4A2C3F50137
:201F000082A9882AF6E09F1609F4AAC2D701C60166E0B695A795979587956A95D1F780FFF6
:201F200019C0F50180AD83FD15C014AD112359F0492D50E0612F70E0CE0101960E94CD3681
:201F4000892B09F487C3F50183AD882AF6E09F1609F486C2D701C60157E0B695A795979555
:201F600087955A95D1F780FF20C0F501EF5BFF4F808183FD1AC0F501EB5BFF4F10811123F7
:201F800059F0492D50E0612F70E0CE0101960E94CD36892B09F470C3F501EC5BFF4F8081F7
:201FA000882A86E0981609F45BC2D0FE1CC08501075B1F4FF801818183FD15C07580772065
:201FC00059F0492D50E0672D70E0CE0101960E94CD36892B09F447C3F8018481882AF6E0E2
:201FE0009F1609F43DC2D701C60149E0B695A795979587954A95D1F780FF1CC085010E5AA9
:202000001F4FF801818183FD15C07580772059F0492D50E0672D70E0CE0101960E94CD3698
:20202000892B09F432C3F8018481882AF6E09F1609F416C2D701C6013AE0B695A79597957E
:2020400087953A95D1F780FF1CC08501055A1F4FF801818183FD15C07580772059F0492D84
:2020600050E0672D70E0CE0101960E94CD36892B09F414C3F8018481882AF6E09F1609F481
:20208000EFC1D701C6012BE0B695A795979587952A95D1F780FF1CC085010C591F4FF801E3
:2020A000818183FD15C07580772059F0492D50E0672D70E0CE0101960E94CD36892B09F4AE
:2020C000F6C2F8018481882AF6E09F1609F4C8C1D701C6010CE0B695A795979587950A958E
:2020E000D1F780FF1CC0850103591F4FF801818183FD15C07580772059F0492D50E0672D0E
:2021000070E0CE0101960E94CD36892B09F4D8C2F8018481882AF6E09F1609F4A1C1D701A7
:20212000C6011DE0B695A795979587951A95D1F780FF1CC085010A581F4FF801818183FD69
:2021400015C07580772059F0492D50E0672D70E0CE0101960E94CD36892B09F4BAC2F8011A
:202160008481882AF6E09F1609F47AC1D701C601FEE0B695A79597958795FA95D1F780FFC3
:202180001CC0850101581F4FF801818183FD15C07580772059F0492D50E0672D70E0CE0198
:2021A00001960E94CD36892B09F4A5C2F8018481882AF6E09F1609F453C1D701C601EFE011
:2021C000B695A79597958795EA95D1F780FF1CC0850108571F4FF801818183FD15C07580F6
:2021E000772059F0492D50E0672D70E0CE0101960E94CD36892B09F475C2F8018481882AD2
:20220000F6E09F1609F42CC1E0FE19C085010D561F4FF8017180772059F0492D50E0672D37
:2022200070E0CE0101960E94CD36892B09F4AFC1F8018081882AF6E09F1609F40FC1D70146
:20224000C60171E1B695A795979587957A95D1F780FF19C085010B561F4FF8017180772091
:2022600059F0492D50E0672D70E0CE0101960E94CD36892B09F494C1F8018081882AF6E0F8
:202280009F1609F4EBC0D701C60162E1B695A795979587956A95D1F780FF19C0850109562C
:2022A0001F4FF8017180772059F0492D50E0672D70E0CE0101960E94CD36892B09F479C166
:2022C000F8018081882AF6E09F1609F4C7C0D701C60153E1B695A795979587955A95D1F7EA
:2022E00080FF19C0850107561F4FF8017180772059F0492D50E0672D70E0CE0101960E94D9
:20230000CD36892B09F45EC1F8018081882AF6E09F1609F4A3C0D701C60144E1B695A79508
:20232000979587954A95D1F780FF19C0850107551F4FF8017180772059F0492D50E0672D02
:2023400070E0CE0101960E94CD36892B09F443C1F8018081882AF6E09F1609F47FC0D70122
:20236000C60135E1B695A795979587953A95D1F780FD5CC0D701C60126E1B695A795979528
:2023800087952A95D1F780FF0EC0850103551F4FF80171807110D3C0F8018081882AF6E081
:2023A0009F1609F45BC097E1F694E794D794C7949A95D1F7C0FE0AC08FEAA80EB11CF5019C
:2023C00011811111D0C0F5018081882A81EA0E94E12C81E00E94E12C80E00E94E12C882D22
:2023E0000E94E12C911048C080E00E94E12C80E00E94E12C80E00E94E12C80E00E94E12C49
:2024000080E00E94E12C80E02696CDBFDEBFDF91CF911F910F91FF90EF90DF90CF90BF901D
:20242000AF909F908F907F900C94E12C850105551F4FF8017180772059F0492D50E0672D01
:2024400070E0CE0101960E94CD36892B09F4DEC0F8018081882AF6E09F128CCF86E0982E18
:2024600081EA0E94E12C81E00E94E12C80E00E94E12C882D0E94E12C89810E94E12CF1E035
:20248000F91508F0B4CF8A810E94E12C82E0891508F0B0CF8B810E94E12CE3E0E91508F00E
:2024A000ACCF8C810E94E12CF4E0F91508F0A8CF8D810E94E12C85E0891508F0A4CF8E815A
:2024C000A3CF168111112DC0912CF50185806CCCC12CD12C7601C39404C0CC0CDD1CEE1C9D
:2024E000FF1C8A95D2F78091042790910527A0910627B0910727C82AD92AEA2AFB2AC09203
:202500000427D0920527E0920627F092072740CCC0900427D0900527E0900627F090072755
:2025200037CC40E050E0612F70E0CE0101960E94CD36892B49F6198399249394C6CF492DDF
:2025400050E0672D70E0CE0101960E94CD36892B09F022CFE1E0F0E0EC0FFD1FE90DF11D12
:202560007082939419CF492D50E0612F70E0CE0101960E94CD36892B09F025CFE1E0F0E097
:20258000EC0FFD1FE90DF11D108393941CCFE1E0F0E0EC0FFD1FE90DF11D7082939448CEA0
:2025A000E1E0F0E0EC0FFD1FE90DF11D7082939463CEE1E0F0E0EC0FFD1FE90DF11D708287
:2025C00093947ECEE1E0F0E0EC0FFD1FE90DF11D7082939499CEE1E0F0E0EC0FFD1FE90DBE
:2025E000F11D70829394B4CEE1E0F0E0EC0FFD1FE90DF11D10839394F1CBE1E0F0E0EC0F84
:20260000FD1FE90DF11D1083939431CCE1E0F0E0EC0FFD1FE90DF11D7082939419CFE1E075
:20262000F0E0EC0FFD1FE90DF11D10839394FBCBE1E0F0E0EC0FFD1FE90DF11D10839394C9
:202640003ACCE1E0F0E0EC0FFD1FE90DF11D1083939455CCE1E0F0E0EC0FFD1FE90DF11D41
:202660001083939470CCE1E0F0E0EC0FFD1FE90DF11D70829394B0CCE1E0F0E0EC0FFD1F7B
:20268000E90DF11D1083939487CCE1E0F0E0EC0FFD1FE90DF11D70829394C5CCE1E0F0E042
:2026A000EC0FFD1FE90DF11D70829394E3CCE1E0F0E0EC0FFD1FE90DF11D7082939401CDA4
:2026C000E1E0F0E0EC0FFD1FE90DF11D708293941FCDE1E0F0E0EC0FFD1FE90DF11D7082AB
:2026E00093943DCDE1E0F0E0EC0FFD1FE90DF11D7082939482CDE1E0F0E0EC0FFD1FE90DF7
:20270000F11D7082939452CDFF920F931F93CF93DF93CDB7DEB72897CDBFDEBF9B01082FE6
:2027200010E06091FE267091FF2696E1899F600D711D1124C8010496F82EFF0CFF0C2D8350
:202740003E834F8358876D557F4FF801EE0FFF1FE55CFE4D9E012F5F3F4FAE014B5F5F4F15
:2027600080819181C9D7F801E050F94D8081833009F45DC0843009F44CC08230E1F084E0C5
:202780008083F801EE5FF84D8081813021F1813070F58B819C8197FD05C084E0808360E0A8
:2027A0008F2DBCDA2896CDBFDEBFDF91CF911F910F91FF90089589819A8197FDE2CF84E0C6
:2027C000808360E08F2D8E5FA9DAF801EE5FF84D80818130E1F68B819C811816190614F3F9
:2027E00084E0808360E08F2D8F5F98DADBCF843019F084E08083D6CF8B819C8197FD2BC0FB
:20280000892B81F281E0808361E08F2D8F5F86DAC9CF89819A8197FD17C0892B09F4B1CF89
:2028200083E0808361E08F2D8D5F78DAAACF89819A81181619060CF4A4CF84E0808360E0F2
:202840008F2D8D5F6BDA9DCF82E0808361E08F2D8E5F64DA96CF108261E08F2D5FDAA2CFF4
:202860005DCA80930827909309270E94FA2F44E150E060E070E08AE097E20C94CC1E7F926E
:202880008F929F92AF92BF92CF92DF92EF92FF920F931F93CF93DF93CDB7DEB72697CDBFE6
:2028A000DEBF10921627613009F4ABC36111DFC3C12CD12C7601C39404C0CC0CDD1CEE1C35
:2028C000FF1C8A95D2F7C094D094E094F0948091182790911927A0911A27B0911B27C822B5
:2028E000D922EA22FB22C0921827D0921927E0921A27F0921B27A0900827B0900927C0FE7D
:2029000000C3F501828183FD6CC3F5011681111143C4912CF5018580970186013695279538
:202920001795079500FDF7C2970186013695279517950795369527951795079500FF0AC013
:20294000F501848983FF7DC3877090911627982B90931627D701C601F3E0B695A795979515
:202960008795FA95D1F780FF0AC0F501858D83FF87C3877090911627982B90931627D70177
:20298000C601E4E0B695A79597958795EA95D1F780FF0AC0F50186A183FF88C3877090914B
:2029A0001627982B90931627D701C60175E0B695A795979587957A95D1F780FF0AC0F501DE
:2029C00087A583FF89C3877090911627982B90931627D701C60166E0B695A79597958795D1
:2029E0006A95D1F780FF1AC0F50180AD83FD8AC3F50114AD112359F0492D50E0612F70E00D
:202A0000CE0101960E94CD36892B09F45FC4F50183AD882AF6E09F1609F497C2D701C6017F
:202A200057E0B695A795979587955A95D1F780FF20C0F501EF5BFF4F808183FD6AC3F50148
:202A4000EB5BFF4F1081112359F0492D50E0612F70E0CE0101960E94CD36892B09F448C486
:202A6000F501EC5BFF4F8081882A86E0981609F46CC2D0FE1DC08501075B1F4FF8018181DD
:202A800083FD50C3F8017580772059F0492D50E0672D70E0CE0101960E94CD36892B09F48F
:202AA0001EC4F8018481882AF6E09F1609F44DC2D701C60149E0B695A795979587954A9577
:202AC000D1F780FF1DC085010E5A1F4FF801818183FD2FC3F8017580772059F0492D50E095
:202AE000672D70E0CE0101960E94CD36892B09F408C4F8018481882AF6E09F1609F425C24B
:202B0000D701C6013AE0B695A795979587953A95D1F780FF1DC08501055A1F4FF8018181EC
:202B200083FD0EC3F8017580772059F0492D50E0672D70E0CE0101960E94CD36892B09F430
:202B4000E9C3F8018481882AF6E09F1609F4FDC1D701C6012BE0B695A795979587952A959B
:202B6000D1F780FF1DC085010C591F4FF801818183FDEDC2F8017580772059F0492D50E03A
:202B8000672D70E0CE0101960E94CD36892B09F4CAC3F8018481882AF6E09F1609F4D5C13A
:202BA000D701C6010CE0B695A795979587950A95D1F780FF1DC0850103591F4FF8018181AD
:202BC00083FDCCC2F8017580772059F0492D50E0672D70E0CE0101960E94CD36892B09F4D3
:202BE000ABC3F8018481882AF6E09F1609F4ADC1D701C6011DE0B695A795979587951A95A7
:202C0000D1F780FF1DC085010A581F4FF801818183FDABC2F8017580772059F0492D50E0DE
:202C2000672D70E0CE0101960E94CD36892B09F48CC3F8018481882AF6E09F1609F485C127
:202C4000D701C601FEE0B695A79597958795FA95D1F780FF1DC0850101581F4FF80181812D
:202C600083FD8AC2F8017580772059F0492D50E0672D70E0CE0101960E94CD36892B09F474
:202C800076C3F8018481882AF6E09F1609F45DC1D701C601EFE0B695A79597958795EA95E9
:202CA000D1F780FF1CC0850108571F4FF801818183FD69C27580772059F0492D50E0672DE9
:202CC00070E0CE0101960E94CD36892B09F446C3F8018481882AF6E09F1609F436C1E0FED2
:202CE00019C085010D561F4FF8017180772059F0492D50E0672D70E0CE0101960E94CD3645
:202D0000892B09F480C2F8018081882AF6E09F1609F464C1D701C60171E1B695A7959795C3
:202D200087957A95D1F780FF19C085010B561F4FF8017180772059F0492D50E0672D70E09F
:202D4000CE0101960E94CD36892B09F465C2F8018081882AF6E09F1609F440C1D701C601BC
:202D600062E1B695A795979587956A95D1F780FF19C0850109561F4FF8017180772059F005
:202D8000492D50E0672D70E0CE0101960E94CD36892B09F44AC2F8018081882AF6E09F16AA
:202DA00009F41CC1D701C60153E1B695A795979587955A95D1F780FF19C0850107561F4F37
:202DC000F8017180772059F0492D50E0672D70E0CE0101960E94CD36892B09F42FC2F801F9
:202DE0008081882AF6E09F1609F4F8C0D701C60144E1B695A795979587954A95D1F780FF27
:202E000019C0850107551F4FF8017180772059F0492D50E0672D70E0CE0101960E94CD362A
:202E2000892B09F414C2F8018081882AF6E09F1609F4D4C0D701C60135E1B695A7959795DB
:202E400087953A95D1F780FDB1C0D701C60126E1B695A795979587952A95D1F780FF0EC088
:202E6000850103551F4FF80171807110A4C1F8018081882AF6E09F1609F4B0C097E1F69490
:202E8000E794D794C7949A95D1F7C0FE0AC08FEAA80EB11CF50111811111A1C1F501808173
:202EA000882A81EA0E94E12C81E00E94E12C80E00E94E12C882D0E94E12C911052C080E0B0
:202EC0000E94E12C80E00E94E12C80E00E94E12C80E00E94E12C80E00E94E12C80E02696EB
:202EE000CDBFDEBFDF91CF911F910F91FF90EF90DF90CF90BF90AF909F908F907F900C9422
:202F0000E12C912C812C97018601369527951795079500FF09CDF501838583FD6BC0F501D8
:202F20001785112359F0492D50E0612F70E0CE0101960E94CD36892B09F492C1F5018685E2
:202F4000882AF5E0F91508F0EFCC81EA0E94E12C81E00E94E12C80E00E94E12C882D0E9499
:202F6000E12C89810E94E12CF1E0F91508F0AACF8A810E94E12C82E0891508F0A6CF8B8108
:202F80000E94E12CE3E0E91508F0A2CF8C810E94E12CF4E0F91508F09ECF8D810E94E12C98
:202FA00085E0891508F09ACF8E8199CF850105551F4FF8017180772059F0492D50E0672DE4
:202FC00070E0CE0101960E94CD36892B09F463C1F8018081882AF6E09F1237CF86E0982E5C
:202FE000B4CF877090911627982B90931627912C812C89CF877090911627982B909316279C
:2030000093CCC12CD12C7601C39404C0CC0CDD1CEE1CFF1C8A95D2F7809118279091192746
:20302000A0911A27B0911B27C82AD92AEA2AFB2AC0921827D0921927E0921A27F0921B27C3
:203040005ACCF501108D112359F0492D50E0612F70E0CE0101960E94CD36892B09F412C125
:20306000F5018789882AF6E09F1274CC6ECFC0901827D0901927E0901A27F0901B273BCCEB
:20308000F50111A1112359F0492D50E0612F70E0CE0101960E94CD36892B09F4EAC0F50129
:2030A00080A1882AF6E09F126ACC4FCFF50112A5112359F0492D50E0612F70E0CE0101964C
:2030C0000E94CD36892B09F4EFC0F50181A5882AF6E09F1269CC39CFF50113A9112359F02A
:2030E000492D50E0612F70E0CE0101960E94CD36892B09F4E2C0F50182A9882AF6E09F1292
:2031000068CC23CF877090911627982B9093162785CC877090911627982B90931627D0FE7A
:20312000C7CCA9CC877090911627982B90931627BFCC877090911627982B90931627E0CC60
:20314000877090911627982B9093162701CD877090911627982B9093162722CD87709091AA
:203160001627982B9093162743CD877090911627982B9093162764CD877090911627982B1E
:203180009093162785CD877090911627982B90931627E0FEBFCDA5CD40E050E0612F70E0F9
:2031A000CE0101960E94CD36892B09F0B2CB198399249394AFCB492D50E0672D70E0CE0187
:2031C00001960E94CD36892B09F051CEE1E0F0E0EC0FFD1FE90DF11D7082939448CE492D96
:2031E00050E0612F70E0CE0101960E94CD36892B09F054CEE1E0F0E0EC0FFD1FE90DF11D39
:20320000108393944BCEE1E0F0E0EC0FFD1FE90DF11D7082939477CDE1E0F0E0EC0FFD1F2A
:20322000E90DF11D7082939492CDE1E0F0E0EC0FFD1FE90DF11D70829394ADCDE1E0F0E042
:20324000EC0FFD1FE90DF11D70829394C8CDE1E0F0E0EC0FFD1FE90DF11D70829394E3CD30
:20326000E1E0F0E0EC0FFD1FE90DF11D1083939465CEE1E0F0E0EC0FFD1FE90DF11D108376
:2032800093940DCFE1E0F0E0EC0FFD1FE90DF11D10839394E5CEE1E0F0E0EC0FFD1FE90D74
:2032A000F11D7082939494CEE1E0F0E0EC0FFD1FE90DF11D1083939408CFE1E0F0E0EC0FBC
:2032C000FD1FE90DF11D1083939415CFE1E0F0E0EC0FFD1FE90DF11D1083939498CBE1E0A6
:2032E000F0E0EC0FFD1FE90DF11D70829394D9CBE1E0F0E0EC0FFD1FE90DF11D10839394C0
:20330000AFCBE1E0F0E0EC0FFD1FE90DF11D70829394EFCBE1E0F0E0EC0FFD1FE90DF11D08
:20332000708293940ECCE1E0F0E0EC0FFD1FE90DF11D708293942DCCE1E0F0E0EC0FFD1F34
:20334000E90DF11D708293944CCCE1E0F0E0EC0FFD1FE90DF11D708293946BCCE1E0F0E0AB
:20336000EC0FFD1FE90DF11D70829394B1CCE1E0F0E0EC0FFD1FE90DF11D7082939481CC8A
:20338000FF920F931F93CF93DF93CDB7DEB72C97CDBFDEBF19861A861B861C866D837E83FC
:2033A0004F835887082F10E026E1829FC00111248F569F4F6091082770910927680F791FE4
:2033C000FB01808186FD6DC0F801EE0FFF1FE15CFE4D9E01275F3F4FAE014B5F5F4F8081E9
:2033E00091819CD289859A85009709F08FC020E030E08B859C85009731F06EE670E00E9402
:2034000051366B877C87232B51F48B859C85892B31F490911627809117279817C9F18AE013
:2034200097E2D3D48823A1F144E150E060E070E08AE097E2B1D4809116278093172781EAD8
:203440000E94E12C83E00E94E12C809116270E94E12C89850E94E12C8A858F702B853C8572
:2034600022953295307F3227207F3227822B0E94E12C8B859C85959587959595879595958B
:203480008795959587950E94E12C80E00E94E12C2C96CDBFDEBFDF91CF911F910F91FF9072
:2034A0000895C8010496F82EFF0CFF0C6E5E7F4FF801EE0FFF1FE15CFE4D9E012F5F3F4FDF
:2034C000AE014B5F5F4F8081918116D1F801EE5EF84D8081833011F1843009F447C0823041
:2034E00049F184E08083F801EC5EF84D8081813089F158F58B819C8197FD05C084E0808341
:2035000060E08F2DBCD929853A857DCF6EE670E00E9451369B0169877A876BCF89819A81A8
:203520001816190604F384E0808360E08F2D8D5FA6D9D9CF89819A8197FDD5CF84E080830D
:2035400060E08F2D8E5F9BD9CECF8430E9F084E08083D9CF8B819C8118161906A4F284E065
:20356000808360E08F2D8F5F8AD9CDCF89819A8197FD1DC0892B09F4B6CF83E0808361E0EC
:203580008F2D8D5F7CD9AFCF2B813C8137FD0AC0232B09F4B8CF81E0808361E08F2D8F5F28
:2035A0006ED9B1CF108261E08F2D69D9ACCF82E0808361E08F2D8E5F62D995CF60C90F933F
:2035C0001F93CF93DF93CDB7DEB72797CDBFDEBF87E0EDE7F0E2DE01119601900D928A9583
:2035E000E1F760E184E066D6E8ECF1E0E491F0E06081662361F08F010F5F1F4F80EA99E01E
:203600000E94C028F80161918F016111F7CFFCD5BE016F5F7F4F80EA99E00E94302A8111D0
:2036200025C0EAEDF1E0E491F0E06081662361F08F010F5F1F4F80EA99E00E94C028F8012B
:2036400061918F016111F7CF6DE080EA99E00E94C0286AE080EA99E00E94C0282796CDBFF6
:20366000DEBFDF91CF911F910F910895EEEDF1E0E491F0E06081662339F38F010F5F1F4FFD
:2036800080EA99E00E94C028F80161918F016111F7CFDACF682F80EA99E00C94C028CF93FD
:2036A000DF93FC016081662349F0EC01219680EA99E00E94C02869916111F9CFDF91CF91E3
:2036C0000895CF93DF93FC016081662349F0EC01219680EA99E00E94C02869916111F9CF94
:2036E0006DE080EA99E00E94C0286AE080EA99E0DF91CF910C94C028CF93DF93EA01A881A3
:20370000B981EC01E881F981EA014A815B81EC018A819B81EA1BFB0B841B950BAF01F7FD0B
:2037200029C0519541955109EB01A881B981B195A195B109A417B50714F4E0E0F0E0AC0149
:2037400097FD1DC0519541955109DB0112966D917C9113977195619571096417750714F434
:2037600080E090E0E901E883F9838A839B83DF91CF910895442755274E1B5F0BD2CF44274A
:203780005527481B590BDECFCF92DF92EF92FF920F931F93CF93DF936B017901FA01A0812B
:2037A000B181FC0120813181A21BB30BFA01C281D381FC0182819381C81BD90BCD01B7FD1D
:2037C00074C0919581959109F601228933893195219531092817390784F4CE01D7FD8BC0E6
:2037E000919581959109F60124893589319521953109281739070CF447C01A161B060CF008
:2038000068C09D01A1E8BFEF0E94A136F60124853585442737FD4095542F0E948636022F52
:20382000132F1C161D060CF045C09E01A1E8BFEF0E94A136F60120893189442737FD4095D3
:20384000542F0E948636003811050CF1C9012138FFEF3F079CF0803891056CF40FE7F701BD
:2038600000838183DF91CF911F910F91FF90EF90DF90CF9008958FE790E0F0CF81E89FEF8C
:20388000803891055CF3F7CF80E000E0E8CF01388FEF1807ACF5C9012138EFEF3E072CF1F4
:2038A00080389105F4F401E8DACF882799278A1B9B0B87CF2FE730E0DE010E94B336F601A9
:2038C00026853785442737FD4095542F0E948636BACF2FE730E00E94B336F601228533859C
:2038E00098CF8FE790E001E8BACF81E89FEF80389105CCF2F6CF882799278C1B9D0B70CF44
:20390000C9012138FFEF3F0714F481E89FEF803891050CF4A4CF8FE790E0A1CFCF93DF9366
:20392000DA01ED91FC91EC01A881B981EA1BFB0BDA0112964D915C9113978A819B81481BC4
:20394000590BCF01F7FD5AC0919581959109EB01AA89BB89B195A195B109A817B9078CF4B7
:20396000CA0157FD5CC0919581959109DB0154966D917C9155977195619571096817790704
:203980004CF1F195E195F109519541955109E115B8E0FB0724F14115C8EF5C07A4F04115DF
:2039A000D8E05D076CF4EFEFF7E0D901ED93FC93119712964D935C931397DF91CF910895B7
:2039C0004FEF57E0F0CF40E058EF4115D8E05D0754F3F6CF40E050E0E0E0F0E0E6CFE11543
:2039E00088EFF8070CF54115A8EF5A078CF04115B8E05B0744F4E0E0F8EFD7CF8827992742
:203A00008E1B9F0BA1CF4FEF57E0E0E0F8EFCDCF40E058EF4115B8E05B076CF3F4CF8827A3
:203A20009927841B950B9FCF4115C8EF5C0714F440E058EF4115D8E05D070CF4B6CF4FEF05
:203A400057E0B3CFCF93DF93CDB7DEB72897CDBFDEBFDAD380E0EDD30E943B2D8AEA90EA13
:203A6000A1E0B0E00197A109B109E1F7789480914800817F84608093480080914800816083
:203A800080934800889540ED57E060E070E0CE01019682D10E949A0A182F05C088E00E94A5
:203AA000CC04882379F3CE0101968FD18823B1F3812F0E94F309809148008E7F80934800FB
:203AC00061E089E790E0EDD4FFCF8F929F92AF92BF92CF92DF92EF92FF92CF93C82F94D3AE
:203AE00080E0A7D330D16B017C019091A80692FDFCCF20E030E02F5F3F4F253580ED3807A7
:203B0000D1F721D14B015C0181E093D37DD380EDC80E87E0D81EE11CF11C8C149D04AE048E
:203B2000BF0458F481E0CF91FF90EF90DF90CF90BF90AF909F908F9008958C2F83DF809330
:203B40001C2724EF31E042E066E08DE197E20E949F2A24EF31E041E062E084E297E20E943C
:203B60009F2A24EF31E042E062E08BE297E20E949F2A64E68DE197E20E94DF2B64E684E216
:203B800097E20E94DF2B64E68BE297E20C94DF2B0F931F93CF93DF93C62F142F853608F013
:203BA00084E6A4E6A81B2091222730912327B0E00E94A73624E630E040E050E00E94643694
:203BC00080911F27E0911D27F0911E27E6FF60C0813009F46FC0823009F466C0C53608F069
:203BE000C4E6A4E6AC1B00911C27011189C081E090E0EC01CC0FDD1FCC0FDD1FCC0FDD1F58
:203C0000C81BD90BC35ED84D2D813E81B0E00E94A73624E630E040E050E00E9464368A816A
:203C2000E881F981E6FF53C0813009F47CC0823009F44AC0153608F014E6A4E6A11B011171
:203C400062C082E090E0EC01CC0FDD1FCC0FDD1FCC0FDD1FC81BD90BC35ED84D2D813E8184
:203C6000B0E00E94A73624E630E040E050E00E9464368A81E881F981E6FF34C0813009F41A
:203C800048C08230D1F0DF91CF911F910F910895823051F060F0833009F44BC0843009F041
:203CA0009DCF26AF37AF9ACF22AF33AF97CF813009F094CF20AF31AF91CF22AF33AFDF911C
:203CC000CF911F910F91089522AF33AFB3CF8230D9F330F1833051F1843009F0ABCF26AFD2
:203CE00037AFA8CF823049F388F0833029F1843051F626AF37AFDF91CF911F910F910895C1
:203D000082E090E076CF81E090E09DCF813009F0BACF20AF31AFDF91CF911F910F910895B0
:203D2000813009F087CF20AF31AF84CF24AF35AF81CF24AF35AF52CF24AF35AFDF91CF911B
:203D40001F910F9108950F931F938FB7F894009134271091352720913627309137278FBFEC
:203D6000B801C9011F910F9108952FB7F8948091342790913527A0913627B09137270196B4
:203D8000A11DB11D8093342790933527A0933627B09337272FBF08950F931F93EFB7F89468
:203DA00000913427109135272091362730913727EFBFFC0100831183228333834483558331
:203DC000668377831F910F9108950F931F93FC014481558166817781452B462B472B01F103
:203DE0008FB7F894409134275091352760913627709137278FBF0081118122813381401BC8
:203E0000510B620B730B81E00481158126813781401751076207730718F01F910F910895F9
:203E200080E01F910F910895FC01148215821682178208950F931F93CF93DF938C0180E424
:203E400098E00E941128C0E4D8E088858E6F88878981887F898318A219A280E09DE78EA3F3
:203E60009FA38C8581608C87B80180E498E00E9493288E818C7F8E838E8181608E838881D4
:203E8000807F8160888380E498E0DF91CF911F910F910C94522880E498E00C941128E0E4A8
:203EA000F8E0848581608487089560E183E002D28CEF94E2F4DBA8D16EE570E280EA98E060
:203EC0000E94302A811118C081E195E2FADB40E46EE377E288E397E20E94540540E264E8B3
:203EE00077E28EE797E20E9454058091A3088F7C80618093A30808958CE095E2E2DBE7CF27
:203F0000CF93C82F6C2F8EE797E20E945D058823C9F38091A3088C7F81608093A308CF918E
:203F200008950F931F93CF93DF93062FFC011081112391F0EC012196612F8EE797E20E9480
:203F40005D058823C9F38091A3088C7F81608093A30819911111F0CF011105C0DF91CF9100
:203F60001F910F91089560E08EE797E20E945D058823C9F38091A3088C7F81608093A30855
:203F8000DF91CF911F910F9108951F93CF93DF93FC011081112391F0EC012196612F8EE7F2
:203FA00097E20E945D058823C9F38091A3088C7F81608093A30819911111F0CF6DE08EE76A
:203FC00097E20E945D058823C9F38091A3088C7F81608093A3086AE08EE797E20E945D055B
:203FE0008823C9F38091A3088C7F81608093A308DF91CF911F910895462FBC0188E397E2C1
:204000000C949E051F920F920FB60F9211240BB60F922F933F934F935F936F937F938F9370
:204020009F93AF93BF93CF93EF93FF93CFB7F8946091A0086B31E1F088E397E20E945D0544
:2040400080E88093A108CFBFFF91EF91CF91BF91AF919F918F917F916F915F914F913F91AE
:204060002F910F900BBE0F900FBE0F901F90189561E089E790E015D2FFCF1F920F920FB6C4
:204080000F9211240BB60F922F933F934F935F936F937F938F939F93AF93BF93EF93FF9370
:2040A000CF93DF931F92CDB7DEB7BE016F5F7F4F8EE797E20E947D0581111BC08091A308CC
:2040C0008C7F8093A3080F90DF91CF91FF91EF91BF91AF919F918F917F916F915F914F91D8
:2040E0003F912F910F900BBE0F900FBE0F901F90189589818093A008E6CFDF92EF92FF9264
:204100000F931F93CF93DF93CDB7DEB72897CDBFDEBF8C017B0168E28EE797E20E945D0531
:204120008823C9F38091A3088C7F81608093A3084AE050E0BE016F5F7F4FC8010E94EC3670
:20414000FC01D080DD20A9F08C010F5F1F4F6D2D8EE797E20E945D058823C9F38091A30864
:204160008C7F81608093A308F801D1908F01D110EECF6CE28EE797E20E945D058823C9F366
:204180008091A3088C7F81608093A3084AE050E0BE016F5F7F4FC7010E94EC36FC01F0800B
:2041A000FF20A9F08C010F5F1F4F6F2D8EE797E20E945D058823C9F38091A3088C7F816041
:2041C0008093A308F801F1908F01F110EECF69E28EE797E20E945D058823C9F38091A308F9
:2041E0008C7F81608093A3082896CDBFDEBFDF91CF911F910F91FF90EF90DF9008958AE08A
:204200000E94762A0C94922A85E195E248DAA89508958091652090916620009729F00197A2
:20422000809365209093662085E195E238DAA8950895811102C00C948A2A0C94922A8111DE
:2042400007C084E690E080936520909366200895823009F0089584E690E080936720909300
:20426000682008958FEF809370008093710080937200809373008093740080937500809367
:2042800076009FB7F894809150008260809350009FBF8091510081FFFCCF61E080E490E000
:2042A00000D19FB7F894809150008E7F809350009FBF08959FB7F894E82FF0E0E059FF4F2F
:2042C00060958081862380839FBF08959FB7F894E82FF0E0E059FF4F8081862B80839FBFDE
:2042E00008958115924009F008958091A427982F9F5F9093A4278111F7CF62E081E0DACFF0
:204300008115924009F008958091A42781508093A4278111F8CF62E081E0D8CF1F93CF935D
:20432000DF93EC011FB7F894C11582E0D80781F08881816088831FBF9FB7F89480910A283C
:204340008F5F80930A289FBFDF91CF911F9108958091A427982F9F5F9093A4278111E8CFD7
:2043600062E081E0A7DFE4CFFF920F931F93CF93DF93EB018115924031F0DF91CF911F91B3
:204380000F91FF90089561E270E082E054D1182F60E270E082E04FD1312F20E08901082BBF
:2043A000FFB6F89480E092E09CDF20910002217082E08093000200930C0210930D028C8154
:2043C0009D8180931802909319028981809302028B81809304028A818093030288818093CF
:2043E00001022093000280E092E08ADFFFBEDF91CF911F910F91FF900895FF920F931F93DC
:20440000CF93DF93EC018B01FFB6F8946ADF888D998DF801848395838A8181838C81838350
:204420008B81828389818083CE016ADFFFBEDF91CF911F910F91FF900895FF920F931F9358
:20444000CF93DF93EC018A01FFB6F8944ADFF801808188A382818AA3818189A3CE0150DF25
:20446000FFBEDF91CF911F910F91FF900895FF920F931F93CF93DF93EC018A01FFB6F894C1
:2044800030DF88A1F80180838AA1828389A18183CE0136DFFFBEDF91CF911F910F91FF903A
:2044A00008951BBEFC0128ED24BF608308959C01CB01E091CF01E7FDFCCFE091CC01E86032
:2044C000E093CC01305FB9010E94DA368091CC01877F8093CC0108957F928F929F92AF929C
:2044E000BF92CF92DF92EF92FF920F931F93CF93DF937C018B016A014115510509F443C03F
:2045000043E3A42E55E3B52E66E3962EC7018F719927892B29F480E2C816D10408F041C014
:20452000F8017080E70121968090CA018091CF0187FDFCCF8091CF0181FF06C09092CA01D4
:2045400061E08BEC91E0ADDF8091CF0187FDFCCFA092CA011092C201F092C101E092C0019D
:204560007092C401B092CA0161E08BEC91E099DF8092CA010F5F1F4FF1E0CF1AD1087E01FB
:20458000C114D10419F6DF91CF911F910F91FF90EF90DF90CF90BF90AF909F908F907F907B
:2045A00008959091CA018091CF0187FDFCCFA092CA011092C2011092C1019801205E3F4FD7
:2045C000E8018C2F801B8093C00189918093C401C217D307B1F79093CA01C701969587957E
:2045E000929582958F7089279F7089272091CF0127FDFCCF9927880F991F82959295907F43
:204600009827807F98271092C2019093C1018093C0011091CA01B092CA0161E08BEC91E05D
:2046200040DF1093CA01E0E2EE0EF11CF0E2CF1AD1088E01A5CF4091CA01E62FF72F8093A1
:20464000CA0184914093CA0108951F920F920FB60F9211240BB60F922F933F934F935F9388
:204660006F937F938F939F93AF93BF93EF93FF93E091A527F091A627309709F00995FF91B1
:20468000EF91BF91AF919F918F917F916F915F914F913F912F910F900BBE0F900FBE0F90D7
:2046A0001F9018951F920F920FB60F9211240BB60F922F933F934F935F936F937F938F93B1
:2046C0009F93AF93BF93EF93FF93E091A727F091A827309709F00995FF91EF91BF91AF9173
:2046E0009F918F917F916F915F914F913F912F910F900BBE0F900FBE0F901F9018951F927A
:204700000F920FB60F9211240BB60F922F933F934F935F936F937F938F939F93AF93BF9397
:20472000EF93FF93E091A927F091AA27309709F00995FF91EF91BF91AF919F918F917F9174
:204740006F915F914F913F912F910F900BBE0F900FBE0F901F9018951F920F920FB60F9272
:2047600011240BB60F922F933F934F935F936F937F938F939F93AF93BF93EF93FF93E091B9
:20478000AB27F091AC27309709F00995FF91EF91BF91AF919F918F917F916F915F914F91C5
:2047A0003F912F910F900BBE0F900FBE0F901F9018951F920F920FB60F9211240BB60F924B
:2047C0002F933F934F935F936F937F938F939F93AF93BF93EF93FF93E091AD27F091AE27C6
:2047E000309709F00995FF91EF91BF91AF919F918F917F916F915F914F913F912F910F905C
:204800000BBE0F900FBE0F901F9018951F920F920FB60F9211240BB60F922F933F934F93A3
:204820005F936F937F938F939F93AF93BF93EF93FF93E091AF27F091B027309709F0099579
:20484000FF91EF91BF91AF919F918F917F916F915F914F913F912F910F900BBE0F900FBE24
:204860000F901F9018951F920F920FB60F9211240BB60F922F933F934F935F936F937F9372
:204880008F939F93AF93BF93EF93FF93E091B127F091B227309709F00995FF91EF91BF91BB
:2048A000AF919F918F917F916F915F914F913F912F910F900BBE0F900FBE0F901F90189529
:2048C0001F920F920FB60F9211240BB60F922F933F934F935F936F937F938F939F93AF9377
:2048E000BF93EF93FF93E091B327F091B427309709F00995FF91EF91BF91AF919F918F915D
:204900007F916F915F914F913F912F910F900BBE0F900FBE0F901F9018951F920F920FB641
:204920000F9211240BB60F922F933F934F935F936F937F938F939F93AF93BF93EF93FF93C7
:20494000E091B527F091B627309709F00995FF91EF91BF91AF919F918F917F916F915F915E
:204960004F913F912F910F900BBE0F900FBE0F901F9018951F920F920FB60F9211240BB64A
:204980000F922F933F934F935F936F937F938F939F93AF93BF93EF93FF93E091B727F0912E
:2049A000B827309709F00995FF91EF91BF91AF919F918F917F916F915F914F913F912F915A
:2049C0000F900BBE0F900FBE0F901F9018951F920F920FB60F9211240BB60F922F933F9325
:2049E0004F935F936F937F938F939F93AF93BF93EF93FF93E091B927F091BA27309709F060
:204A00000995FF91EF91BF91AF919F918F917F916F915F914F913F912F910F900BBE0F9091
:204A20000FBE0F901F9018951F920F920FB60F9211240BB60F922F933F934F935F936F93F5
:204A40007F938F939F93AF93BF93EF93FF93E091BB27F091BC27309709F00995FF91EF9123
:204A6000BF91AF919F918F917F916F915F914F913F912F910F900BBE0F900FBE0F901F90C4
:204A800018951F920F920FB60F9211240BB60F922F933F934F935F936F937F938F939F934A
:204AA000AF93BF93EF93FF93E091BD27F091BE27309709F00995FF91EF91BF91AF919F9165
:204AC0008F917F916F915F914F913F912F910F900BBE0F900FBE0F901F9018951F920F9225
:204AE0000FB60F9211240BB60F922F933F934F935F936F937F938F939F93AF93BF93EF93D3
:204B0000FF93E091BF27F091C027309709F00995FF91EF91BF91AF919F918F917F916F91E6
:204B20005F914F913F912F910F900BBE0F900FBE0F901F9018951F920F920FB60F92112459
:204B40000BB60F922F933F934F935F936F937F938F939F93AF93BF93EF93FF93E091C12722
:204B6000F091C227309709F00995FF91EF91BF91AF919F918F917F916F915F914F913F91CD
:204B80002F910F900BBE0F900FBE0F901F9018951F920F920FB60F9211240BB60F922F9375
:204BA0003F934F935F936F937F938F939F93AF93BF93EF93FF93E091C327F091C4273097B1
:204BC00009F00995FF91EF91BF91AF919F918F917F916F915F914F913F912F910F900BBE76
:204BE0000F900FBE0F901F9018951F920F920FB60F9211240BB60F922F933F934F935F9397
:204C00006F937F938F939F93AF93BF93EF93FF93E091C527F091C627309709F00995FF91CB
:204C2000EF91BF91AF919F918F917F916F915F914F913F912F910F900BBE0F900FBE0F9031
:204C40001F9018951F920F920FB60F9211240BB60F922F933F934F935F936F937F938F930B
:204C60009F93AF93BF93EF93FF93E091C727F091C827309709F00995FF91EF91BF91AF918D
:204C80009F918F917F916F915F914F913F912F910F900BBE0F900FBE0F901F9018951F92D4
:204CA0000F920FB60F9211240BB60F922F933F934F935F936F937F938F939F93AF93BF93F2
:204CC000EF93FF93E091C927F091CA27309709F00995FF91EF91BF91AF919F918F917F918F
:204CE0006F915F914F913F912F910F900BBE0F900FBE0F901F9018951F920F920FB60F92CD
:204D000011240BB60F922F933F934F935F936F937F938F939F93AF93BF93EF93FF93E09113
:204D2000CB27F091CC27309709F00995FF91EF91BF91AF919F918F917F916F915F914F91DF
:204D40003F912F910F900BBE0F900FBE0F901F9018951F920F920FB60F9211240BB60F92A5
:204D60002F933F934F935F936F937F938F939F93AF93BF93EF93FF93E091CD27F091CE27E0
:204D8000309709F00995FF91EF91BF91AF919F918F917F916F915F914F913F912F910F90B6
:204DA0000BBE0F900FBE0F901F9018951F920F920FB60F9211240BB60F922F933F934F93FE
:204DC0005F936F937F938F939F93AF93BF93EF93FF93E091CF27F091D027309709F0099594
:204DE000FF91EF91BF91AF919F918F917F916F915F914F913F912F910F900BBE0F900FBE7F
:204E00000F901F9018951F920F920FB60F9211240BB60F922F933F934F935F936F937F93CC
:204E20008F939F93AF93BF93EF93FF93E091D127F091D227309709F00995FF91EF91BF91D5
:204E4000AF919F918F917F916F915F914F913F912F910F900BBE0F900FBE0F901F90189583
:204E60001F920F920FB60F9211240BB60F922F933F934F935F936F937F938F939F93AF93D1
:204E8000BF93EF93FF93E091D327F091D427309709F00995FF91EF91BF91AF919F918F9177
:204EA0007F916F915F914F913F912F910F900BBE0F900FBE0F901F9018951F920F920FB69C
:204EC0000F9211240BB60F922F933F934F935F936F937F938F939F93AF93BF93EF93FF9322
:204EE000E091D527F091D627309709F00995FF91EF91BF91AF919F918F917F916F915F9179
:204F00004F913F912F910F900BBE0F900FBE0F901F9018951F920F920FB60F9211240BB6A4
:204F20000F922F933F934F935F936F937F938F939F93AF93BF93EF93FF93E091D727F09168
:204F4000D827309709F00995FF91EF91BF91AF919F918F917F916F915F914F913F912F9194
:204F60000F900BBE0F900FBE0F901F9018951F920F920FB60F9211240BB60F922F933F937F
:204F80004F935F936F937F938F939F93AF93BF93EF93FF93E091D927F091DA27309709F07A
:204FA0000995FF91EF91BF91AF919F918F917F916F915F914F913F912F910F900BBE0F90EC
:204FC0000FBE0F901F9018951F920F920FB60F9211240BB60F922F933F934F935F936F9350
:204FE0007F938F939F93AF93BF93EF93FF93E091DB27F091DC27309709F00995FF91EF913E
:20500000BF91AF919F918F917F916F915F914F913F912F910F900BBE0F900FBE0F901F901E
:205020001895CF93CFB7F894811528E0920719F1803428E0920731F1811529E0920721F14D
:2050400081152AE0920739F181159B4019F0CFBFCF91089561E086E02DD964E086E02AD98E
:205060009FB7F89480910A288F5F80930A289FBFCFBFCF91089561E083E01CD964E083E0AF
:2050800019D9EECF62E0F8CF61E084E013D964E084E010D9E5CF61E085E00CD964E085E04E
:2050A00009D9DECFCF93CFB7F8943FB7F89420910A28215020930A283FBF811528E09207FD
:2050C000C9F0803428E09207F1F0811529E09207E1F081152AE09207F9F081159B4019F03C
:2050E000CFBFCF91089561E086E0F0D864E086E0EDD8F6CF61E083E0E9D864E083E0E6D8B8
:20510000CFBFCF91089562E0F6CF61E084E0DED864E084E0DBD8E4CF61E085E0D7D864E0FB
:2051200085E0D4D8DDCF811528E09207A9F0803428E09207B1F0811529E09207B9F0811575
:205140002AE09207C1F081159B4009F008956093D1277093D22708956093A5277093A627E1
:2051600008956093B1277093B22708956093B9277093BA2708956093C5277093C62708958E
:20518000FC01818185FFFDCF608380E090E008958F929F92AF92BF92CF92DF92EF92FF92A8
:2051A0000F931F93CF93DF93EC016A017B0148015901D901C80133E0B695A79597958795CB
:2051C0003A95D1F7B501A401E6E17695679557954795EA95D1F72C8122FD08C0B695A795E5
:2051E0009795879576956795579547958C159D05AE05BF0508F498C0C416D506E606F706EC
:2052000008F492C08C8182FF9DC0C501B401A70196010E9464362F3F31054105510508F423
:2052200096C02F3F81E038074105510508F4C2C02F3F93E039074105510508F4F1C02F3F18
:20524000A7E03A074105510508F4ECC02F3FBFE03B074105510508F4E7C02E3F8FE1380798
:205260004105510508F4E2C02C3F9FE339074105510508F4DDC0283FAFE73A0741055105B8
:2052800008F4D8C0203FBFEF3B074105510508F4DBC0203E8FEF380781E04807510508F4DB
:2052A000D5C0203C9FEF390793E04907510508F4CFC02038AFEF3A07A7E04A07510508F42A
:2052C000C9C02115BFEF3B07BFE04B07510508F4C3C021153E4F4F41510508F4BFC010E73E
:2052E0002AE030E0D701C60104C0880F991FAA1FBB1F2A95D2F79C01AD01BC01CD019695B6
:20530000879577956795680D791D8A1D9B1D0E9464362150310941095109832F8F70812B17
:205320008F832E8381E001C080E0DF91CF911F910F91FF90EF90DF90CF90BF90AF909F906F
:205340008F900895CC0CDD1CEE1CFF1C5ECFD701C601880F991FAA1FBB1F880F991FAA1FC5
:20536000BB1F880F991FAA1FBB1F881A990AAA0ABB0A10E929EF3FEF6DEF7FEF621B730B9F
:20538000A501940104C0220F331F441F551F6A95D2F7CA01B90146015701B694A794979418
:2053A0008794680D791D8A1D9B1DA70196010E946436B3CF4AEF242F332727FD3095142F59
:2053C0001295107FD701C601880F991FAA1FBB1F880F991FAA1FBB1F880F991FAA1FBB1F22
:2053E000881A990AAA0ABB0A4E3F34F22D5F3F4FD701C60104C0880F991FAA1FBB1F2A950E
:20540000D2F79C01AD01BC01CD019695879577956795680D791D8A1D9B1D0E9464367DCFAC
:205420004BEFC9CF4CEFC7CF4DEFC5CF4EEFC3CF4FEFC1CF10E0212F332727FD30952D5F4D
:205440003F4F1295107F4ECF11E0F5CF12E0F3CF13E0F1CF14E0EFCF15E0EDCF16E0EBCF3C
:205460000F931F93CF93DF93EC018B01C03A88E0D80791F1C03AE9E0DE0799F1C03AFAE0C2
:20548000DF0729F18D818F738D83F80184819581892B9681911119C090E0892B8D83F80165
:2054A000408151816281738100E018E428EE31E0CE016EDE9C8198609C839C8190619C8303
:2054C000DF91CF911F910F91089598E0E6CF60E185E00E945A21D6CF60E183E00E945A21B9
:2054E000D1CF60E184E00E945A21CCCF6091800024E0829FC00111248C73992762706160D1
:20550000682B80E890E00E9451228091820080FDFCCF0895609180006C7F616080E890E09E
:205520000C945122609180006C73636080E890E00E9451228091820080FDFCCF08958F92BF
:205540009F92AF92BF92CF92DF92EF92FF92CF93DF93EC014901623009F4CCC008F44FC073
:20556000643009F4DCC0663009F4AFC04A83423009F463C0433008F07BC0413011F480E120
:205580008B83888199814DDDE881F9818181887F836081831D821E821C82E881F98180811C
:2055A000807F8083A12CB12C60E078E488EE91E0A50194010E94643669017A01CA01B901DB
:2055C0002FEF3FEF40E050E00E94643621153105B9F581E08C83CD82DE8284E6C816D1049D
:2055E00018F41C821D821E82DF91CF91FF90EF90DF90CF90BF90AF909F908F900895662314
:2056000009F44EC0613009F0B1CF80E498E08883998350914006242F30E02D5F3F4F81E06D
:2056200090E0022E01C0880F0A94EAF7582B509340064A83423009F09DCF80E28B83A1CFC3
:205640002130310509F480C024303105E0F02830310508F086C084E08C8360E079E08DE3E4
:2056600090E0A50194010E94643669017A01B3CF433031F0443009F084CF80E88B8381CFC2
:2056800080E48B837ECF83E08C8360E072E18AE790E0A50194010E94643669017A019BCF9F
:2056A00080E098E08883998350914006242F30E02150310981E090E0022E01C0880F0A94BF
:2056C000EAF7582B5093400651CF80E09BE0888399835091A006242F30E02150310981E025
:2056E00090E0022E01C0880F0A94EAF7582B5093A0063CCF80E099E08883998350916006D5
:20570000242F30E02150310981E090E0022E01C0880F0A94EAF7582B5093600627CF80E081
:205720009AE08883998350918006242F30E02150310981E090E0022E01C0880F0A94EAF77B
:20574000582B5093800612CF82E08C8360E074E284EF90E0A50194010E94643669017A0136
:205760003ACF2034310588F02F3F310509F0D0F486E08C8368E478EE81E090E0A50194018A
:205780000E94643669017A0126CF85E08C8360E271EA87E090E0A50194010E94643669012A
:2057A0007A0119CF87E08C8362E17AE780E090E0A50194010E94643669017A010CCF0F93C3
:2057C0001F93CF93DF93EC010D811E819801A62FB0E00E94A73624E630E040E050E00E94A0
:2057E00064368A81E881F981E6FF1BC08130D1F1823079F106A317A38B81E881F98191816E
:20580000E6FF24C08073892B8183E881F9818081807F9C81892B8083DF91CF911F910F913D
:2058200008958230B1F0E0F0833019F1843011F726AF37AF0D811E81E881F98106A317A301
:205840008B81E881F9819181E6FDDCCF982B9183DCCF22AF33AF0D811E81E881F981CACFDB
:20586000813041F620AF31AF0D811E81E881F981C1CF24AF35AF0D811E81E881F981BACFA1
:205880001F93CF93DF93EC0112E0699180918806662309F184FD17C01093850648EE53E098
:2058A0008091880684FD0FC020E030E02F5F3F4F253D84E13807D1F74150510931F38091DF
:2058C000880684FFF1CF80EA9AE05ADC6991809188066111DFCF84FD35C082E080938506AE
:2058E00028EE33E08091880684FD2CC080E090E00196853D44E19407D9F72150310991F787
:205900008091880684FD17C082E08093850628EE33E08091880684FD0EC080E090E0019612
:20592000853D44E19407D9F72150310991F7DF91CF911F9108956AE080EA9AE0DF91CF91C7
:205940001F911ECC6DE080EA9AE01ADCD9CFCF93DF93CDB7DEB72797CDBFDEBF87E0E4E8D7
:20596000F0E2DE01119601900D928A95E1F760E185E00E945A2187E195E20E944F1B0E9458
:205980000421BE016F5F7F4F80EA9AE069DD81110CC0EAEDF1E0849190E00E94611B2796F7
:2059A000CDBFDEBFDF91CF910895EEEDF1E0849190E00E94611B2796CDBFDEBFDF91CF914C
:2059C00008959091880694FD15C092E09093850648EE53E09091880694FD0CC020E030E070
:2059E0002F5F3F4F253D94E13907D1F74150510989F70895682F80EA9AE0C2CB209188065D
:205A000024FD16C022E02093850648EE53E02091880624FD0DC020E030E02F5F3F4F253D2B
:205A200064E13607D1F74150510989F780E0089527DF80E00895CF93DF9380E280938506DD
:205A400085E593E2A8E0B0E00197A109B109E1F781E080938606C0EDD7E080E090E00196B0
:205A6000853D24E19207D9F70E9404212197A9F7DF91CF91089586E295E20E94611B80915C
:205A8000880684FD13C082E08093850620ED37E08091880684FD0AC080E090E00196853DED
:205AA00044E19407D9F72150310991F78091880684FD1AC082E08093850628EE33E08091EF
:205AC000880684FD11C080E090E00196853D44E19407D9F72150310991F781E080938506FB
:205AE00080E28093860608958CE295E2C9DE81E08093850680E280938606089582E395E203
:205B00000E94611BA8958091880684FD91C082E08093850628EE33E08091880684FD88C028
:205B200080E090E00196853D44E19407D9F72150310991F78091880684FD13C082E0809311
:205B4000850620ED37E08091880684FD0AC080E090E00196853D44E19407D9F72150310948
:205B600091F78091880684FD5FC082E08093850628EE33E08091880684FD56C080E090E02F
:205B80000196853D44E19407D9F72150310991F7A8958091880684FD13C082E080938506B9
:205BA00028EE33E08091880684FD0AC080E090E00196853D44E19407D9F72150310991F7E6
:205BC0008091880684FD2CC082E08093850628EE33E08091880684FD23C080E090E0019626
:205BE000853D44E19407D9F72150310991F7A8958091880684FD13C082E08093850620E7E9
:205C000037E18091880684FD0AC080E090E00196853D44E19407D9F72150310991F70895F9
:205C20008EE495E22DDEE3CF85E495E229DEB0CF89E395E225DE7ECFCF93DF9381E08093DD
:205C4000A60680E28093850685E593E2A8E0B0E00197A109B109E1F781E080938606C0ED20
:205C6000D7E080E090E00196853D24E19207D9F70E9404212197A9F780E09AE6A8E1B0E0BE
:205C80000197A109B109E1F781E08093A50685E593E2A8E0B0E00197A109B109E1F7DF91D6
:205CA000CF9108958091880684FDDEC082E08093850628EE33E08091880684FDD5C080E0EB
:205CC00090E00196853D44E19407D9F72150310991F78091880684FDC2C082E08093850696
:205CE00028EE33E08091880684FDB9C080E090E00196853D44E19407D9F72150310991F7F6
:205D00008091880684FDA6C082E08093850628EE33E08091880684FD9DC080E090E00196F0
:205D2000853D44E19407D9F72150310991F78091880684FD8AC082E08093850628EE33E04B
:205D40008091880684FD81C080E090E00196853D44E19407D9F72150310991F780E090E026
:205D600001968A3228E69207D9F78091880684FD67C082E08093850628EE33E0809188064A
:205D800084FD5EC080E090E00196853D44E19407D9F72150310991F78091880684FD4BC04D
:205DA00082E08093850628EE33E08091880684FD42C080E090E00196853D44E19407D9F7DF
:205DC0002150310991F78091880684FD2FC082E08093850628EE33E08091880684FD26C052
:205DE00080E090E00196853D44E19407D9F72150310991F78091880684FD14C082E080934E
:205E0000850628EE33E08091880684FD0BC080E090E00196853D44E19407D9F7215031097F
:205E200091F7089560E080EA9AE0AAC960E080EA9AE0A6D9DFCF62E080EA9AE0A1D9C3CF23
:205E400061EA80EA9AE09CD9A7CF60E080EA9AE097D984CF61E080EA9AE092D968CF62E038
:205E600080EA9AE08DD94CCF61EA80EA9AE088D930CFCF93DF9386E295E20E94611B80914C
:205E8000880684FD13C082E08093850620ED37E08091880684FD0AC080E090E00196853DE9
:205EA00044E19407D9F72150310991F78091880684FD43C082E08093850628EE33E08091C2
:205EC000880684FD3AC080E090E00196853D44E19407D9F72150310991F791E090938506AE
:205EE00080E2809386069093A6068093850685E593E2A8E0B0E00197A109B109E1F781E008
:205F000080938606C0EDD7E080E090E00196853D24E19207D9F70E9404212197A9F78AEA54
:205F20009BE7ACE1B0E00197A109B109E1F781E08093A506DF91CF9108958CE295E2A0DC01
:205F4000CCCFE0E8F6E0808586FB882780F991E0892708958091880684FD13C082E0809334
:205F6000850628EE33E08091880684FD0AC080E090E00196853D44E19407D9F7215031091F
:205F800091F78091880684FD14C082E08093850628EE33E08091880684FD0BC080E090E0A1
:205FA0000196853D44E19407D9F72150310991F708958DE595E264CC8091880684FD15C01A
:205FC00082E08093850628EE33E08091880684FD0CC080E090E00196853D44E19407D9F7F3
:205FE0002150310991F780E0089583E695E248DC80E008958091880684FD15C082E0809306
:20600000850628EE33E08091880684FD0CC080E090E00196853D44E19407D9F7215031097C
:2060200091F780E008958DE795E22ADC80E008958091880684FD15C082E08093850628EEE2
:2060400033E08091880684FD0CC080E090E00196853D44E19407D9F72150310991F780E0F5
:2060600008958AE895E20CDC80E008958091880684FD15C082E08093850628EE33E0809186
:20608000880684FD0CC080E090E00196853D44E19407D9F72150310991F780E0089587E9CC
:2060A00095E2EEDB80E0089561E089E790E00E945122FFCF0E944F1F0E94B51E8091E327FF
:2060C0009091E4270196883E23E0920728F48093E3279093E42708951092E3271092E4273E
:2060E0000C94092180911228823009F44EC090F0843009F45DC08730A9F11092DD271092E7
:20610000DE271092DF271092E0271092E1271092E2270895882399F0813079F783EF94E0FC
:206120008093DD279093DE2789EF94E08093DF279093E0271092E1271092E227089588E88F
:206140009EE08093DD279093DE2780E394E18093DF279093E02784E893E18093E127909349
:20616000E22708958AEC9CE08093DD279093DE2787EF9CE08093DF279093E02787EF9DE020
:206180008093E1279093E227089588EE9AE08093DD279093DE2785E19BE08093DF279093CF
:2061A000E02789E39CE08093E1279093E227089581E394E18093DD279093DE278EED9AE1FE
:2061C0008093DF279093E02780EC99E18093E1279093E22708959FB7F89484E08093AA06A9
:2061E0002FB7F8948093B000E0EAF6E08089887F808B80898160808B2FBF82E08093A906A8
:206200009FBF0895CF93DF93CDB7DEB7C055D109CDBFDEBF109211280E9432210E946701A4
:2062200080E090E001968A3228E69207D9F780E00E949F1D41E060E080E00E94C81D88E056
:206240000E94CC048111FBCF0E9415010E94630183E00E9433016C010E949E02B82EEBDB1E
:2062600076DB0E94FF208AE590E30E941A1F0E94DF1A0E94551F809142200E943301809342
:206280004C2090934D2080934420909345208093482090934920809143200E94330180939F
:2062A0004E2090934F20809346209093472080934A2090934B20809150200E943301809366
:2062C0005A2090935B2080935220909353208093562090935720809151200E9433018093FD
:2062E0005C2090935D20809354209093552080935820909359201092092810920A281092F3
:206300000B2810920C2810920D2881E080930E280E944B1F60DF0E942F0387E08093A200B8
:2063200078948091EA27881F8827881F9091EB279F73990F982B81E009F480E00E94651DA0
:20634000809310280E949A0A682E0E94F309CADE8091EB2782958695869583709091EC2739
:20636000990F990F982B81E009F080E00E949F1D84EA95E20E94C51F8DEB95E20E94C51F12
:2063800084EA95E20E94611B8091122890E08751984DB4DBA895E091DD27F091DE273097F4
:2063A00009F445C482E198E2099549E150E060E070E0CE0101960E94CC1E0E94042146E093
:2063C00050E060E070E0CE01875B9F4F0E94CC1E0E94042146E050E060E070E0CE018F5B6C
:2063E0009F4F0E94CC1E0E94042148EE53E060E070E0CE0189960E94CC1E0E94042140E6FC
:206400005AEE60E070E0CE0181960E94CC1E0E94042148EE53E060E070E0CE0149960E9422
:20642000CC1E0E94042140EE53E964E070E0CE0141960E94CC1E0E940421CE01C9960E94E4
:20644000141F81E096E20E94611B912C712C812CE3EEF1E04490AA24A39492E0592ECE01C8
:2064600001960E94E51E882309F467C00E94042180E00E941F21CE0181960E94E51E8111EB
:2064800098C2CE0149960E94E51E81114AC280911228823009F45BC2873009F463C2CE01F2
:2064A000875B9F4F0E94E51E8111B9C0CE018F5B9F4F0E94E51E81116DC0CE01C9960E9481
:2064C000E51E811106C0CE0141960E94E51E882391F0CE01C9960E94141F40EE53E964E039
:2064E00070E0CE0141960E94CC1E0E949E02B82E882309F46EC2CE01C1960E94E51E8111BD
:2065000083C288E00E94CC04182F89E00E94CC04882359F0112349F085E598E5A4E1B0E0DD
:206520000197A109B109E1F7BDDB0E94B208CE0101960E94E51E811199CFCE01875B9F4FEF
:206540000E94E51E811192CFCE018F5B9F4F0E94E51E81118BCFCE0181960E94E51E81114E
:2065600085CFCE0149960E94E51E81117FCF80914800817F842980934800809148008160F9
:206580008093480078948895809148008E7F809348006CCF46E050E060E070E0CE018F5BDC
:2065A0009F4F0E94CC1E809142200E94330180934C2090934D20809143200E9433018093AC
:2065C0004E2090934F20E091E127F091E227309739F060914C2070914D20AC0180E0099552
:2065E000809150200E94330180935A2090935B20809151200E94330180935C2090935D2092
:20660000E091E127F091E227309709F456CF60915A2070915B20AC0181E009954ECF46E0B8
:2066200050E060E070E0CE01875B9F4F0E94CC1E80910220882309F4B5C280E00E94CC044B
:206640008111B5C2809101208F5F8093012080910620882309F404C281E00E94CC048111D3
:2066600004C2809105208F5F8093052080910A20882309F400C282E00E94CC04811100C22B
:20668000809109208F5F8093092080910E20882309F4FCC183E00E94CC048111FCC18091BD
:2066A0000D208F5F80930D2080911220882309F4F8C184E00E94CC048111F8C18091112078
:2066C0008F5F8093112080911620882309F4F4C185E00E94CC048111F4C1809115208F5F92
:2066E0008093152080911A20882309F4F0C186E00E94CC048111F0C1809119208F5F809348
:20670000192080911E20882309F4ECC187E00E94CC048111ECC180911D208F5F80931D20F8
:2067200080912220882309F4E8C188E00E94CC048111E8C1809121208F5F809321208091FB
:206740002620882309F4E4C189E00E94CC048111E4C1809125208F5F8093252080912A209D
:20676000882309F4E0C18AE00E94CC048111E0C1809129208F5F8093292080912E20882313
:2067800009F4DCC18BE00E94CC048111DCC180912D208F5F80932D2080913220882309F49C
:2067A000D8C18CE00E94CC048111D8C1809131208F5F8093312080913620882309F4D4C1DF
:2067C0008DE00E94CC048111D4C1809135208F5F8093352080913A20882309F4D0C18EE0E5
:2067E0000E94CC048111D0C1809139208F5F8093392080913E20882309F4CCC18FE00E948B
:20680000CC048111CCC180913D208F5F80933D2001E010E282E0E82E80E2F82E312C28C0A5
:20682000A082222423942091DF273091E027232B89F1809112288230E1F540EE53E964E071
:2068400070E0CE0141960E94CC1EF8E03F1226C0211024C080912220813009F4ABC133945E
:206860000C5F1F4F84E0E80EF11CE0E13E1679F1F8018081843098F31082F70180818823EA
:2068800079F2F7011082212C2091DF273091E027232B79F628E03212E2CFDCCFE091DF275B
:2068A000F091E027622D832D099528E03212D7CFD1CF40EE53E964E070E0CE0141960E949B
:2068C000CC1E80911228873009F4BFCFB6CF91107EC18110BBC0809122208111A9C0711001
:2068E00016C080912620882309F4E0CD2091E52730E0A4E6B0E02BD2AB01BC01CE01C196A3
:206900000E94CC1E862D0E94620A77247394809126208111CBCDCE01C1960E94141F712C6F
