:020000021000EC
:100000000C94ED800C94FF800C94FF800C94FF8086
:100010000C94FF800C94FF800C94FF800C94FF8064
:100020000C94FF800C94FF800C94FF800C94FF8054
:100030000C94FF800C94FF800C94FF800C94FF8044
:100040000C94FF800C94FF800C94FF800C94FF8034
:100050000C94FF800C94FF800C94FF800C94FF8024
:100060000C94FF800C94FF800C94FF800C94FF8014
:100070000C94FF800C94FF800C94FF800C94FF8004
:100080000C94FF800C94FF800C94FF800C94FF80F4
:100090000C94FF800C94FF800C94FF800C94FF80E4
:1000A0000C94FF800C94FF800C94FF800C94FF80D4
:1000B0000C94FF800C94FF800C94FF800C94FF80C4
:1000C0000C94FF800C94FF800C94FF800C94FF80B4
:1000D0000C94FF800C94FF800C94FF800C94FF80A4
:1000E0000C94FF800C94FF800C94FF800C94FF8094
:1000F0000C94FF800C94FF800C94FF800C94FF8084
:100100000C94FF800C94FF800C94FF800C94FF8073
:100110000C94FF800C94FF800C94FF800C94FF8063
:100120000C94FF800C94FF800C94FF800C94FF8053
:100130000C94FF800C94FF800C94FF800C94FF8043
:100140000C94FF800C94FF800C94FF800C94FF8033
:100150000C94FF800C94FF800C94FF800C94FF8023
:100160000C94FF800C94FF800C94FF800C94FF8013
:100170000C94FF800C94FF800C94FF800C94FF8003
:100180000C94FF800C94FF800C94FF800C94FF80F3
:100190000C94FF800C94FF800C94FF800C94FF80E3
:1001A0000C94FF800C94FF800C94FF800C94FF80D3
:1001B0000C94FF800C94FF800C94FF800C94FF80C3
:1001C0000C94FF800C94FF8058426A01F386FA86F3
:1001D000FC8637874F8711874A8711241FBECFEFD0
:1001E000CDBFDFE2DEBF21E2A0E0B0E201C01D92A0
:1001F000A130B207E1F70E94D7830C9462870C9478
:1002000000803BB78BBFFB0186913BBF08953BB796
:100210008BBFFB01879196913BBF089542E097C049
:1002200041E095C08093C00188278093C1018093ED
:10023000C20147E07CD0CB0108958093C40148E01F
:1002400076C08091D00108953BB748E10C94AC8111
:100250003BB74AE10C94AC813BB7882799278BBF09
:1002600040E20C94AC813BB78BBFCB0142E20C94D3
:10027000AC813BB70B0143E20C94AC81EE27FF2726
:1002800019BEDC0143E24093CA0150E82DE90D900C
:100290001D9020933400E89532965A95C1F71124A9
:1002A00008953BB76BBFFA0119BEDC0140E04093F3
:1002B000CA0150E0879197918D939D935A95D1F7FC
:1002C0003BBF08953BB78BBFCB0144E20C94AC819C
:1002D0003BB78BBFCB0145E20C94AC813BB746E208
:1002E0000C94AC813BB78BBFCB014AE20C94AC8140
:1002F0003BB78BBFCB014CE20C94AC813BB78BBFBF
:10030000CB014DE20C94AC8148E311C049E30FC02E
:1003100028ED2093340021E02093CC010895209112
:10032000CF0127FDFCCF22272093CA0108954093D7
:10033000CA0128ED31E0209334003093CB01609165
:10034000C4017091C5018091C60199270895FC01EF
:100350004093CA0184910895FC014093CA012DE99C
:1003600020933400E89511243BBF08958627682F19
:1003700062956827062E669566956025062E669519
:1003800060256770082E892F669507946795902DD4
:1003900086270694679590258627089590910020DA
:1003A0009230F0F78091A10887FFFACF81E0809327
:1003B00000208091A008089590910020923058F478
:1003C0008093A0088091A10886FFFCCF8091A108AE
:1003D00080648093A10808950E94CE81982F0E9486
:1003E000CE81882F0895AF92BF92CF92DF92EF9285
:1003F000FF920F931F93CF93DF931F92CDB7DEB77A
:100400007C01262F5A01A89541E0C42E40E2D42E4B
:1004100000E010E00E151F0528F429830E94CE810C
:10042000298101C08FEFF60181936F010F5F1F4F8C
:100430000115F1E01F0771F72534B1F4A70161E060
:1004400070E2F501808191810E946686F50100814C
:100450001181228133810E0D1F1D211D311D00834D
:1004600011832283338334C0263411F0253571F58E
:10047000F50180819181A281B381F694E794AC016A
:10048000BD014E0D5F1D611D711D4083518362834F
:100490007383263461F4BC01CD01660F771F881F7A
:1004A000991F21E041E050E20E94A58511C0253549
:1004B00079F481E090E20E943E810E9424810E94B2
:1004C0008F810E9428810E948F8102C08FE301C02A
:1004D0008DE00F90DF91CF911F910F91FF90EF90E2
:1004E000DF90CF90BF90AF9008959F92AF92BF9250
:1004F000CF92DF92EF92FF920F931F93CF93DF93F0
:100500007C01962EEA0185E4681316C0A70161E01C
:1005100070E2888199810E94228688819981AA81CE
:10052000BB818E0D9F1DA11DB11D88839983AA8358
:10053000BB83C1E0D0E25BC086E4681731F085E59B
:10054000681719F080E568135CC088819981AA81D9
:10055000BB81880F991FAA1FBB1F88839983AA8319
:10056000BB836701A12CB12C86E498120AC08501D7
:100570000F5F1F4F688179818A819B810E94018171
:1005800014C085E5981208C085010F5F1F4F888150
:1005900099810E94108109C080E598120BC08501E5
:1005A0000F5F1F4F88810E940E81F501EF5FFF4DA5
:1005B000808358010E948F81088119812A813B81A3
:1005C0000F5F1F4F2F4F3F4F088319832A833B83B1
:1005D00081E0C81AD108C114D10431F636952795A7
:1005E00017950795088319832A833B83A2CFCE01F1
:1005F000815090428E159F0524F489910E94DC81E0
:10060000F6CFDF91CF911F910F91FF90EF90DF9088
:10061000CF90BF90AF909F9008958F929F92AF928E
:10062000BF92CF92DF92EF92FF920F931F93CF93DF
:10063000DF936B017C0149015A0100E011E0C0E049
:10064000D0E081149104A104B10401F1011581E00D
:10065000180761F4B701A60181E090E20E94518180
:100660008FEFD81AE80AF80A00E010E0F801EF5F0F
:10067000FF4D6081CE010E94B681EC010F5F1F4FDC
:1006800081E0881A9108A108B108DBCFCE01DF9183
:10069000CF911F910F91FF90EF90DF90CF90BF907F
:1006A000AF909F908F900895CF92DF92EF92FF923C
:1006B000CF93DF9340E05FEF60E070E081E090E295
:1006C0000E9451818091FB20883509F069C080919A
:1006D000FC20823409F064C08091FD20893409F047
:1006E0005FC08091FE20863409F05AC0E090FF2060
:1006F000F12CFE2CEE2480910021E82A2AEF3FE71E
:1007000040E050E060E070E880E090E00E940D83FF
:10071000C6E0D0E06FEF0E94B68121972097D1F715
:10072000E816F90641F0DF91CF91FF90EF90DF904E
:10073000CF900C941187C12CD12C7601D2E0CFEF51
:10074000D0936706B701A60150586F4F7F4F81E0E5
:1007500090E20E945181C1148FE7D806E104F104B0
:1007600091F021E041E050E2C701B6010E94A58569
:100770008FEFD81AE80AF80AC11480E8D806E10415
:10078000F104F1F6D0CFC093FB20C093FC20C093BE
:10079000FD20C093FE20C093FF20C0930021E1CF35
:1007A000DF91CF91FF90EF90DF90CF900895EF927F
:1007B000FF920F931F93CF93DF93CDB7DEB72597AB
:1007C000CDBFDEBF19821A821B821C8210920020CC
:1007D00081E08093680082E08093610680936506E3
:1007E0000E94D28688E180935206409100203EEF1D
:1007F0008BED91E0A0E0B0E052E00097A105B105DB
:1008000021F00197A109B1090EC05093670630FF8E
:1008100005C08BED91E0A0E0B0E004C084E090E082
:10082000A0E0B0E031502091A10827FF03C041E0D3
:1008300021E001C020E0A895222321F04093002070
:1008400021E004C03111D9CF409300202D830E94B4
:10085000E98600E010E0B2E0FB2E2D81222309F4AE
:100860005BC1F09267060E94CE81A895813611F493
:1008700089E54BC1813429F40E94EC81A0E0B0E00D
:1008800068C0883439F40E94CE81A82F0E94EC8180
:10089000BB275FC0853661F40E942C818091CF0117
:1008A000877011F0A895FACF0E94CA868DE02DC1FD
:1008B000823629F489E50E94DC8181E0B1C082346E
:1008C00069F40E94EC818C010E94CE81AE014F5FE1
:1008D0005F4F682FC8010E94F38117C1873669F402
:1008E0000E94EC818C010E94CE81AE014F5F5F4F70
:1008F000682FC8010E9475820AC1823581F469811E
:100900007A818B819C81660F771F881F991F0E94B7
:100910000781E82E892F0E94DC818E2D45C0833609
:1009200029F40E94CE81082F10E0C0CF8334B1F4A7
:100930000E94CE81182B89819A81B801880F991F56
:100940000E94398189819A81AB81BC810196A11D68
:10095000B11D89839A83AB83BC83A8CF8D36A1F464
:1009600089819A81AB81BC81811520E89207A1051C
:10097000B10508F0C9C0BC01CD01660F771F881F03
:10098000991F0E94628192CF843441F40E94CE81EB
:10099000682F89819A810E94028608C0843691F46A
:1009A00089819A810E94E1850E94DC8189819A81F6
:1009B000AB81BC810196A11DB11D89839A83AB8354
:1009C000BC83A5C08C3629F40E94CE810E941D8173
:1009D0006DCF823719F40E94218197C0863411F4BB
:1009E00080E007C08E3411F481E003C0813521F42A
:1009F00082E00E94128189C0803509F457CF8C347F
:100A000009F454CF853429F48DE00E94DC8120E084
:100A10007FC0803711F483E578C0843729F48BE7F1
:100A20000E94DC8180E071C098E8980F923010F04D
:100A3000843519F40E94CE8139CF8335A1F488E53D
:100A40000E94DC8182E40E94DC818FE60E94DC81CE
:100A50008FE60E94DC8184E70E94DC818BE20E94A9
:100A6000DC818BE252C0863529F481E30E94DC816F
:100A700087E34BC0833741F48AE40E94DC8186E936
:100A80000E94DC818EE141C08836E1F50E94CE8172
:100A9000863421F168F4813431F18234D9F420E0D4
:100AA00030E140E050E060E070E081E090E022C0A2
:100AB000813659F0843771F420E030E840E050E0AE
:100AC00060E070E880E090E015C020E030E840E0B1
:100AD00050E00DC08FE30E94DC81C3CE20E030E106
:100AE00041E050E004C020E030E041E050E060E050
:100AF00070E0CB010E940D83E82E892F0E94DC81DB
:100B00008E2D03C08B3119F08FE30E94DC8121E030
:100B10002D830E948F81A1CE0E9454830E94DF8684
:100B20001092520682E080936206809366060C94CF
:100B3000000080E090E02596CDBFDEBFDF91CF9131
:100B40001F910F91FF90EF900895CF92DF92EF9257
:100B5000FF92CF93DF931F92CDB7DEB76B017C017D
:100B6000CA0129830E943E812981C701B60122233F
:100B700019F00E94688102C00E9462810F90DF918B
:100B8000CF91FF90EF90DF90CF900C948F81EBECA2
:100B9000F1E021E030E088ED90E084BF208308950B
:100BA0008091CF0187FDFCCF08950E94D085809170
:100BB000CF0181FF05C086E38093CA010C94C785ED
:100BC00008950F931F93CF93DF9300D0CDB7DEB777
:100BD00089839A830E94D08500EC11E08981F80115
:100BE00080839A819F719183128286E082870E941E
:100BF000C785F80184810F900F90DF91CF911F91ED
:100C00000F910895CF93DF9300D01F92CDB7DEB739
:100C100069838A839B830E94D585E0ECF1E023E31E
:100C200022878A8180839B819F719183128269814F
:100C3000648385E382872396CDBFDEBFDF91CF91AA
:100C40000C94C7858F929F92BF92CF92DF92EF92C2
:100C5000FF920F931F93CF93DF9300D0CDB7DEB7F2
:100C60004C017A011092C20169837A830E94D08577
:100C70006981062F7A81172F6401CE0CDF1C86E074
:100C8000B82E8C149D0499F08092C001892D8F712B
:100C90008093C101B092CA010E94C7858091C401AE
:100CA000F80181938F01FFEF8F1A9F0AEACFC701E6
:100CB0000F900F90DF91CF911F910F91FF90EF90C8
:100CC000DF90CF90BF909F908F9008958F929F92CA
:100CD000AF92BF92CF92DF92EF92FF920F931F934A
:100CE000CF93DF9300D01F92CDB7DEB76A01282FD4
:100CF0002F718C01021B110929836A837B830E9457
:100D0000D5850E94D08583E38093CA011092C101EA
:100D10001092C2016A81E62E7B81F72E460195E38F
:100D2000B92E23E3A22E29818114910411F120937D
:100D3000C001F70181917F018093C401F1E08F1A16
:100D400091088114910419F02F5F203269F7009304
:100D5000C001812F8F718093C101B092CA010E949E
:100D6000C785005E1F4F0E94D085A092CA0120E077
:100D7000DBCFC6012396CDBFDEBFDF91CF911F91A0
:100D80000F91FF90EF90DF90CF90BF90AF909F902A
:100D90008F9008950E94D08580E3E0ECF1E0828797
:100DA0000C94C78588E0E0E4F6E08183E0EAF8E0AF
:100DB0008AE1868380ED87838CE184830895E0EA6D
:100DC000F8E014821682178288E0E0E4F6E082837D
:100DD000089588ED84BF8FE1809380008091820028
:100DE00080FDFCCF089527E031E0FC0120833183B2
:100DF00080E0089582E00895CF93CFB76130710508
:100E000021E08207910550F4F8940E9433810E94FA
:100E10008F811092CA01CFBF80E001C083E0CF91E3
:100E20000895CF92DF92EF92FF92CF93CFB7F894CD
:100E3000C12C80E8D82EE12CF12CC701B6010E940C
:100E400033810E948F818FEFD81AE80AF80AC11403
:100E5000D10481E0E806F10481F71092CA01CFBF06
:100E600080E0CF91FF90EF90DF90CF900895CF93E7
:100E7000CFB76130710531E08307910540F4F894F4
:100E80000E94A5851092CA01CFBF80E001C083E017
:100E9000CF91089570588F4F9F4F0C943787CF9301
:100EA000CFB7F8940E943E810E9424810E948F81D6
:100EB0000E9428810E948F811092CA01CFBF80E0DA
:080EC000CF910895F894FFCFD3
:0400000310000000E9
:00000001FF
